:100000000C9464000C9481000C9481000C94810089
:100010000C9481000C9481000C9481000C9481005C
:100020000C9481000C9481000C9481000C9481004C
:100030000C9481000C94FD070C9481000C948100B9
:100040000C9481000C9481000C9481000C9481002C
:100050000C9481000C9481000C9481000C9481001C
:100060000C9481000C948100FC011F024102630288
:1000700021038502A702CA02ED0210032103210316
:10008000210321032103210321031903036EDB361E
:100090003D9A9999993DABAAAA2A3E000000803F5B
:1000A000072C7AA5BA6CC590DA3B9365FC8BBC53E0
:1000B000F810FD3C5692834DBD879D3AB63DCBC9A5
:1000C000BF5BBE73DA0FC93F11241FBECFEFD8E06C
:1000D000DEBFCDBF11E0A0E0B1E0EEE8FFE102C07D
:1000E00005900D92A031B107D9F721E0A0E1B1E070
:1000F00001C01D92A431B207E1F70E9451080C948F
:10010000C50F0C9400000895FC01648575858685F3
:1001100097850895FC016089718982899389089582
:10012000FC01648975898689978908954F925F9249
:100130006F927F928F929F92AF92BF92CF92DF92F7
:10014000EF92FF92CF93DF93CDB7DEB72A970FB62A
:10015000F894DEBF0FBECDBF9A878987FC018080EF
:100160009180A280B380C480D580E680F780A5010D
:100170009401C501B4010E94BB0E2B013C01A701F3
:100180009601C701B6010E94BB0E9B01AC01C301E1
:10019000B2010E94750C0E942E0F6B017C01E98553
:1001A000FA8540845184628473849B01AC010E946F
:1001B000BB0E69837A838B839C83A3019201C30165
:1001C000B2010E94BB0E6D837E838F8398872D8141
:1001D0003E814F81588569817A818B819C810E9403
:1001E000750C0E942E0F69837A838B839C83A701F1
:1001F0009601C501B4010E94010D0E94E10CE98540
:10020000FA85648775878687978720E030E040E02D
:100210005FE369817A818B819C810E94BB0E20E023
:1002200030E040EF52E40E94010D0E94630C9B01FC
:10023000AC010E94750C4B015C01E985FA85648B69
:10024000758B868B978B20E030E0A901C301B2014A
:100250000E94B60E18165CF529813A814B815C81AB
:10026000C701B6010E94010D0E94E10C6B017C01E7
:10027000A50194016BED7FE089E490E40E94740C89
:1002800020E030E040E05FE30E94BB0EA701960152
:100290000E94750C2BED3FE049EC5FE30E94740C6B
:1002A000E985FA85608B718B828B938B36C02981AF
:1002B0003A814B815C81C701B6010E94010D0E9409
:1002C000E10C2B013C01A50194016BED7FE089E479
:1002D00090E40E94740C20E030E040E05FE30E9474
:1002E000BB0E6B017C01A30192016BED7FE089E401
:1002F00090E40E94740C9B01AC01C701B6010E94FE
:10030000750C2BED3FE049EC5FE30E94740CE9852E
:10031000FA85608B718B828B938BA5019401E985A3
:10032000FA8560897189828993890E94750CE985B3
:10033000FA85648B758B868B978B2A960FB6F8940B
:10034000DEBF0FBECDBFDF91CF91FF90EF90DF906A
:10035000CF90BF90AF909F908F907F906F905F9065
:100360004F900895CF92DF92EF92FF920F931F93D9
:10037000FC01408351836283738304831583268346
:100380003783C086D186E286F3860E9496001F914D
:100390000F91FF90EF90DF90CF90089508956F92A6
:1003A0007F928F929F92AF92BF92CF92DF92EF9205
:1003B000FF920F931F93CF93DF93CDB7DEB7609774
:1003C0000FB6F894DEBF0FBECDBF3C01FE013196E3
:1003D00080E1DF011D928A95E9F780EC90E00E94B0
:1003E0005D0C90E0FC01F097E231F10508F029C1C5
:1003F000EC5CFF4F0C94A50F80EC8F931F921F9223
:100400001F9280E48F938F931F921F9289A09AA0CE
:10041000ABA0BCA0CDA0DEA0EFA0F8A409A51AA5B2
:100420002BA53CA54DA55EA56FA578A9C3010E948B
:100430005E0A0FB6F894DEBF0FBECDBF34C11F9267
:100440001F921F921F9280E48F938F931F921F928F
:1004500089A09AA0ABA0BCA0CDA0DEA0EFA0F8A47C
:1004600009A51AA52BA53CA54DA55EA56FA578A944
:10047000C3010E945E0A0FB6F894DEBF0FBECDBF67
:1004800012C180E48F931F921F921F928F938F93BC
:100490001F921F9289A09AA0ABA0BCA0CDA0DEA005
:1004A000EFA0F8A409A51AA52BA53CA54DA55EA50E
:1004B0006FA578A9C3010E945E0A0FB6F894DEBF4B
:1004C0000FBECDBFF0C080EC8F931F921F921F9282
:1004D0001F921F921F921F9289A09AA0ABA0BCA04E
:1004E000CDA0DEA0EFA0F8A409A51AA52BA53CA5D8
:1004F0004DA55EA56FA578A9C3010E945E0A0FB63F
:10050000F894DEBF0FBECDBFCEC080E48F931F92A4
:100510001F921F921F921F921F921F9289A09AA052
:10052000ABA0BCA0CDA0DEA0EFA0F8A409A51AA5A1
:100530002BA53CA54DA55EA56FA578A9C3010E947A
:100540005E0A0FB6F894DEBF0FBECDBFACC080EC24
:100550008F931F921F921F928F9380E48F931F920D
:100560001F9289A09AA0ABA0BCA0CDA0DEA0EFA056
:10057000F8A409A51AA52BA53CA54DA55EA56FA5B8
:1005800078A9C3010E945E0A0FB6F894DEBF0FBEC1
:10059000CDBF89C01F921F921F921F9280EC8F9334
:1005A00080E48F931F921F9289A09AA0ABA0BCA059
:1005B000CDA0DEA0EFA0F8A409A51AA52BA53CA507
:1005C0004DA55EA56FA578A9C3010E945E0A0FB66E
:1005D000F894DEBF0FBECDBF66C080E48F931F923C
:1005E0001F921F9290EC9F938F931F921F9289A04E
:1005F0009AA0ABA0BCA0CDA0DEA0EFA0F8A409A556
:100600001AA52BA53CA54DA55EA56FA578A9C3018C
:100610000E945E0A0FB6F894DEBF0FBECDBF43C086
:1006200080E090E0A0EAB0E489879A87AB87BC8736
:1006300008C080E090E0A0EAB0EC89879A87AB8799
:10064000BC8780E090E0A0E8BFE38D879E87AF87FE
:10065000B88B8DB79EB740970FB6F8949EBF0FBE6C
:100660008DBFADB7BEB7119680E1FE01B196019086
:100670000D928A95E1F789809A80AB80BC80CD800D
:10068000DE80EF80F88409851A852B853C854D85B1
:100690005E856F857889C3010E94900B0FB6F89430
:1006A000DEBF0FBECDBFC30160960FB6F894DEBFAC
:1006B0000FBECDBFDF91CF911F910F91FF90EF90B3
:1006C000DF90CF90BF90AF909F908F907F906F9072
:1006D000089521E0FC01208308958F929F92AF92AC
:1006E000BF92CF92DF92EF92FF920F931F93CF931F
:1006F000DF93CDB7DEB760970FB6F894DEBF0FBEBD
:10070000CDBFFC0189829A82AB82BC82CD82DE821F
:10071000EF82F88609871A872B873C874D875E878B
:100720006F87788B89819A81AB81BC818583968321
:10073000A783B0878D819E81AF81B885818792879D
:10074000A387B48789859A85AB85BC85858796877D
:10075000A787B08B8D859E85AF85B889818B928B5D
:10076000A38BB48B158A168A178A108E118E128E5F
:10077000138E148E158E168E178E10A211A212A231
:1007800013A214A260960FB6F894DEBF0FBECDBFC1
:10079000DF91CF911F910F91FF90EF90DF90CF905D
:1007A000BF90AF909F908F9008954F925F926F92FD
:1007B0007F928F929F92AF92BF92CF92DF92EF92F1
:1007C000FF920F931F93CF93DF93CDB7DEB7609760
:1007D0000FB6F894DEBF0FBECDBFFC2DE82D842EE2
:1007E000442E552E662E772E49825A826B827C8249
:1007F000C02E402F512F622F732F4D835E836F8346
:1008000078870F2F4F2F5D2D6E2D7F2D49875A87AB
:100810006B877C874E2F4E2E592C6A2C7B2C4D8655
:100820005E866F86788A9A80AB80BC80DE80EF809F
:10083000F8841A852B853C855E856F8578890E94B2
:100840006D0360960FB6F894DEBF0FBECDBFDF918B
:10085000CF911F910F91FF90EF90DF90CF90BF90BD
:10086000AF909F908F907F906F905F904F90089582
:100870002F923F924F925F926F927F928F929F92B0
:10088000AF92BF92CF92DF92EF92FF920F931F939E
:10089000CF93DF93CDB7DEB7E4970FB6F894DEBF02
:1008A0000FBECDBF1C0189829A82AB82BC82CD82F1
:1008B000DE82EF82F88609871A872B873C874D876F
:1008C0005E876F87788B89819A81AB81BC8189A390
:1008D0009AA3ABA3BCA34D805E806F80788489848B
:1008E0009A84AB84BC84CD84DE84EF84F8889C0138
:1008F000AD012D966CAD7DAD8EAD9FAD2D970E9457
:10090000740C6D8B7E8B8F8B988FA30192016196F7
:100910006CAD7DAD8EAD9FAD61970E94740C698FFB
:100920007A8F8B8F9C8FA501940165966CAD7DAD00
:100930008EAD9FAD65970E94740C6D8F7E8F8F8FEB
:1009400098A3A701960169966CAD7DAD8EAD9FAD64
:1009500069970E94740C6DA77EA78FA798AB2D890D
:100960003E894F89588DCA01B9010E94BB0E698B1F
:100970007A8B8B8B9C8B298D3A8D4B8D5C8DCA012C
:10098000B9010E94BB0E6DA37EA38FA398A79B0104
:10099000AC0169897A898B899C890E94750C69AB45
:1009A0007AAB8BAB9CAB2D8D3E8D4F8D58A1CA0180
:1009B000B9010E94BB0E69A77AA78BA79CA72DA19E
:1009C0003EA14FA158A569897A898B899C890E948B
:1009D000750C698B7A8B8B8B9C8B29A53AA54BA5C3
:1009E0005CA569897A898B899C890E94750C0E9413
:1009F0002E0F698B7A8B8B8B9C8B20E030E040E84C
:100A00005FE36D966CAD7DAD8EAD9FAD6D970E9431
:100A1000FC0C882364F06D968CAD9DADAEADBFAD82
:100A20006D97F10185AB96ABA7ABB0AF13C06989E9
:100A30007A898B899C890E942E0F20E030E040E269
:100A400051E40E94BB0ED101D5966D937D938D9399
:100A50009C93D89720E030E040E85FE3F10165A97E
:100A600076A987A990AD0E94FC0C88234CF480E005
:100A700090E0A0EAB0E4F10185AB96ABA7ABB0AFD4
:100A800029893A894B895C89D101D5966D917D91EF
:100A90008D919C91D8970E94010DF10161AF72AFC9
:100AA00083AF94AF89A19AA1ABA1BCA185839683A2
:100AB000A783B0874186528663867486858696862C
:100AC000A786B08AC18AD28AE38AF48A8D899E89F0
:100AD000AF89B88D858B968BA78BB08F898D9A8DBA
:100AE000AB8DBC8D818F928FA38FB48F8D8D9E8D9A
:100AF000AF8DB8A1858F968FA78FB0A38DA59EA52A
:100B0000AFA5B8A981A392A3A3A3B4A310820E9406
:100B10003208D10111966D937D938D939C93149718
:100B2000E4960FB6F894DEBF0FBECDBFDF91CF9134
:100B30001F910F91FF90EF90DF90CF90BF90AF90FB
:100B40009F908F907F906F905F904F903F902F90ED
:100B500008956F927F928F929F92AF92BF92CF92A1
:100B6000DF92EF92FF920F931F93CF93DF93CDB756
:100B7000DEB7A0970FB6F894DEBF0FBECDBF3C0125
:100B8000898A9A8AAB8ABC8ACD8ADE8AEF8AF88EF5
:100B9000098F1A8F2B8F3C8F4D8F5E8F6F8F78A3AD
:100BA00019A90AA9FBA8ECA8FC012589368947895F
:100BB000508D65817681878190850E94750C69834F
:100BC0007A838B839C83F301218D328D438D548DE9
:100BD00061857285838594850E94750C6D837E8303
:100BE0008F839887F301258D368D478D50A16585BC
:100BF0007685878590890E94750C69877A878B87AF
:100C00009C87F30121A132A143A154A1618972897A
:100C1000838994890E94750C6D877E878F87988B56
:100C2000EF92FF920F931F938DB79EB740970FB629
:100C3000F8949EBF0FBE8DBFADB7BEB7119680E1D1
:100C4000FE01719601900D928A95E1F789809A8054
:100C5000AB80BC80CD80DE80EF80F88409851A856A
:100C60002B853C854D855E856F857889C3010E9403
:100C700038040FB6F894DEBF0FBECDBFA0960FB6F6
:100C8000F894DEBF0FBECDBFDF91CF911F910F91C2
:100C9000FF90EF90DF90CF90BF90AF909F908F909C
:100CA0007F906F900895CF92DF92EF92FF92CF9353
:100CB000DF93FC012081211175C0EC010E943208F4
:100CC000C980DA80EB80FC806C197D098E099F0950
:100CD0000E94A90D20E034E244E759E40E94010D8E
:100CE00029AD3AAD4BAD5CAD0E94BB0E6B017C01F2
:100CF00020E030E040E85FE30E94B60E882354F025
:100D000081E088830F2EC12CD12CF0E8EF2EFFE379
:100D1000FF2EF02D2D893E894F89588DC701B601D0
:100D20000E94BB0E2D813E814F8158850E94750C1B
:100D30006DA37EA38FA398A7298D3A8D4B8D5C8DD3
:100D4000C701B6010E94BB0E29853A854B855C859B
:100D50000E94750C69A77AA78BA79CA72D8D3E8D45
:100D60004F8D58A1C701B6010E94BB0E2D853E854F
:100D70004F8558890E94750C6DA77EA78FA798ABE9
:100D800029A13AA14BA15CA1C701B6010E94BB0EEB
:100D900029893A894B895C890E94750C69AB7AABC9
:100DA0008BAB9CABDF91CF91FF90EF90DF90CF901A
:100DB0000895FC0181E09081911101C080E00895C7
:100DC000FC0165A176A187A190A50895FC0161A50C
:100DD00072A583A594A50895FC0165A576A587A5B0
:100DE00090A90895DC011196ED91FC911297408134
:100DF00021E030E0C90113960C9002C0880F991FC2
:100E00000A94E2F7842B80830895DC011196ED911A
:100E1000FC911297408121E030E0B90113960C90CB
:100E200002C0660F771F0A94E2F7CB0180958423F6
:100E3000808308950F93CF93DF93EC0101110DC0D0
:100E4000FB01308181E090E0022E02C0880F991FE3
:100E50000A94E2F7832B80830DC0FB01308181E08F
:100E600090E0022E02C0880F991F0A94E2F7809545
:100E7000832380835A8349832B83CE010E940507F5
:100E80001882DF91CF910F910895FC0175836483DF
:100E9000578346830895CF93DF93EC01CB01BA01CA
:100EA000288539854A855B850E94BB0E0E94730D9B
:100EB0007B836A8379836883DF91CF910895CF9391
:100EC000DF93EC01CB01BA01288539854A855B8522
:100ED0000E94BB0E0E94730D79836883DF91CF91CE
:100EE0000895CF93DF93EC01288139818A819B811A
:100EF0002817390744F0288139818A819B8182171C
:100F0000930744F14DC08E819F810E94F2068AE1D1
:100F10008A95F1F700C08C819D810E94F20687EED0
:100F200093E00197F1F700C000008C819D810E9441
:100F3000050787EE93E00197F1F700C000008A8172
:100F40009B8101979B838A832881398128173907E0
:100F5000D4F2D1CF8E819F810E9405079AE19A95A4
:100F6000F1F700C08C819D810E94F2068FEC97E022
:100F70000197F1F700C000008C819D810E94050758
:100F80008FEC97E00197F1F700C000008A819B8108
:100F900001969B838A832881398182179307D4F233
:100FA000DF91CF910895CF92DF92EF92FF92CF938E
:100FB000DF93EC016A017B01B901330F880B990BB8
:100FC0000E94AB0DA70196010E94BB0E20E030E00D
:100FD00040E05FE30E94BB0E2BED3FE049E450E4AC
:100FE0000E94010D688779878A879B87DF91CF915F
:100FF000FF90EF90DF90CF9008951F920F920FB661
:101000000F9211248F939F93AF93BF938091100100
:1010100090911101A0911201B09113010196A11DAF
:10102000B11D8093100190931101A0931201B09310
:101030001301BF91AF919F918F910F900FBE0F90B1
:101040001F901895E1E8F0E0808182608083EFE6F0
:10105000F0E080818160808310928500109284008E
:1010600078940895E0918400F0918500209110011A
:10107000309111014091120150911301AEEFBFEF79
:101080000E94AB0FDC01CB01B695A795979587958C
:10109000F695E795BC01CD016E0F7F1F811D911D57
:1010A0000895CF93DF93CDB7DEB7CD5CD1090FB6EE
:1010B000F894DEBF0FBECDBF00E022E04BE250E06F
:1010C0006AE270E0CE0101960E941A0723E04BE22B
:1010D00050E06AE270E0CE0105960E941A0724E013
:1010E0004BE250E06AE270E0CE0109960E941A07D6
:1010F00025E04BE250E06AE270E0CE010D960E94DE
:101100001A0726E04BE250E06AE270E0CE01419619
:101110000E941A0727E04BE250E06AE270E0CE013D
:1011200045960E941A07AE01435F5F4FBE016F5F95
:101130007F4FCE0149960E944507AE014F5E5F4F3B
:10114000BE016B5F7F4FCE018E960E944507AE01B8
:101150004B5E5F4FBE01675F7F4FCE018D5B9F4F40
:101160000E944507CE01885A9F4F0E948300CE01FE
:1011700080599F4F0E946903CE0183559F4F0E9463
:10118000CE0120E436E049E35EE863E670E4CE0198
:101190008D5B9F4F0E94D30720E436E049E35EE871
:1011A00063E670E4CE018E960E94D30720E436E019
:1011B00049E35EE863E670E4CE0149960E94D307F6
:1011C0004BED5FE069EC7FE3CE018D5B9F4F0E94AA
:1011D0004B0740E050E0BA01CE018E960E944B07CB
:1011E00040E050E0BA01CE0149960E944B070E94B0
:1011F000220828E040E855E260E070E080EC90E0F2
:101200000E94090C80E1E0E0F1E0DE01A255BF4F51
:1012100001900D928A95E1F7812C912C54010F2EAB
:10122000C12CD12CF0EFEF2EF2E4FF2EF02D970120
:101230008601B501A401CE0180599F4F0E94D503BC
:1012400081E48F9380E28F931F921F92C255DF4FEC
:101250008880CE5AD040C155DF4F9880CF5AD040B9
:10126000C055DF4FA880C05BD040CF54DF4FB8805F
:10127000C15BD040CE54DF4FC880C25BD040CD545C
:10128000DF4FD880C35BD040CC54DF4FE880C45BD5
:10129000D040CB54DF4FF880C55BD040CA54DF4FFD
:1012A0000881C65BD040C954DF4F1881C75BD0406E
:1012B000C854DF4F2881C85BD040C754DF4F388106
:1012C000C95BD040C654DF4F4881CA5BD040C5548B
:1012D000DF4F5881CB5BD040C454DF4F6881CC5B7B
:1012E000D040C354DF4F7881CD5BD040CE018059D0
:1012F0009F4F0E94A9050F900F900F900F90CE0165
:1013000080599F4F0E945306CE0180599F4F0E94E3
:10131000EC066B017C01CE0180599F4F0E94E606CE
:101320004B015C01CE0180599F4F0E94E006AB014A
:10133000BC0195018401CE01885A9F4F0E94B201E1
:10134000CE01885A9F4F0E948400AB01BC01CE01A0
:1013500049960E945F07CE01885A9F4F0E948A00DB
:10136000AB01BC01CE018E960E945F07CE01885A68
:101370009F4F0E949000AB01BC01CE018D5B9F4F3F
:101380000E945F07CE0149960E947107CE018E969A
:101390000E947107CE018D5B9F4F0E947107CE01A5
:1013A00080599F4F0E94D906882309F4A8CF8DB792
:1013B0009EB740970FB6F8949EBF0FBE8DBFADB7D6
:1013C000BEB7119680E1FE01E255FF4F01900D92EC
:1013D0008A95E1F7BE0163557F4FCE0182549F4F3E
:1013E0000E94CF0180E1FE01E254FF4FDE01A255D1
:1013F000BF4F01900D928A95E1F782E48F9388ECBC
:101400008F931F921F92C255DF4F8880CE5AD040D3
:10141000C155DF4F9880CF5AD040C055DF4FA880CC
:10142000C05BD040CF54DF4FB880C15BD040CE54BA
:10143000DF4FC880C25BD040CD54DF4FD880C35B44
:10144000D040CC54DF4FE880C45BD040CB54DF4F5A
:10145000F880C55BD040CA54DF4F0881C65BD040DE
:10146000C954DF4F1881C75BD040C854DF4F288173
:10147000C85BD040C754DF4F3881C95BD040C654E9
:10148000DF4F4881CA5BD040C554DF4F5881CB5BEA
:10149000D040C454DF4F6881CC5BD040C354DF4F91
:1014A0007881CD5BD040CE0180599F4F0E94A90525
:1014B0000FB6F894DEBF0FBECDBF21CF2F923F9263
:1014C0004F925F926F927F928F929F92AF92BF9254
:1014D000CF92DF92EF92FF920F931F93CF93DF9300
:1014E000CDB7DEB764970FB6F894DEBF0FBECDBFA1
:1014F0001C0189829A82AB82BC82CD82DE82EF821D
:10150000F88609871A872B873C874D875E876F8708
:10151000788BC980DA80EB80FC808D809E80AF80E4
:10152000B88420E030E0A90169A57AA58BA59CA527
:101530000E94FC0C8823E4F525EE32EF4FE75FE3D1
:10154000C701B6010E94BB0E2B013C0129E23CE51C
:101550004FE85CE3C501B4010E94BB0E9B01AC01E6
:10156000C301B2010E94750CF10160837183828313
:101570009383C701B601905829E23CE54FE85CE34C
:101580000E94BB0E6B017C0125EE32EF4FE75FE35B
:10159000C501B4010E94BB0E9B01AC01C701B6019D
:1015A0000E94750CF101648375838683978345C01F
:1015B00020E030E0A90169A57AA58BA59CA50E9431
:1015C000B60E1816D4F525EE32EF4FE75FE3C701EC
:1015D000B6010E94BB0E2B013C0129E23CE54FE81D
:1015E0005CE3C501B4010E94BB0E9B01AC01C301C9
:1015F000B2010E94740CF101608371838283938332
:1016000029E23CE54FE85CE3C701B6010E94BB0E4E
:101610006B017C0125EE32EF4FE75FE3C501B401BA
:101620000E94BB0E9B01AC01C701B6010E94750C64
:10163000F1016483758386839783F10180809180B3
:10164000A280B380C480D580E680F780A501940194
:10165000C501B4010E94BB0E2B013C01A7019601FC
:10166000C701B6010E94BB0E698B7A8B8B8B9C8B5A
:1016700029893A894B895C89C301B2010E94750CA2
:101680000E942E0F2B013C012DA53EA54FA558A968
:101690000E94750CA30192010E94010D2B013C01D7
:1016A0009B01AC01C501B4010E94BB0EF101608336
:1016B000718382839383A3019201C701B6010E94C3
:1016C000BB0EF101648375838683978389859A8530
:1016D000AB85BC8580879187A287B3878D859E85E2
:1016E000AF85B88984879587A687B787C101649637
:1016F0000FB6F894DEBF0FBECDBFDF91CF911F9123
:101700000F91FF90EF90DF90CF90BF90AF909F90A0
:101710008F907F906F905F904F903F902F900895A3
:101720006F927F928F929F92AF92BF92CF92DF92F1
:10173000EF92FF920F931F93CF93DF93CDB7DEB756
:1017400060970FB6F894DEBF0FBECDBF3C01898213
:101750009A82AB82BC82CD82DE82EF82F8860987D4
:101760001A872B873C874D875E876F87788B2DA5DF
:101770003EA54FA558A96D857E858F8598890E94C5
:10178000750CF301648775878687978729A13AA12D
:101790004BA15CA169817A818B819C810E94750C2F
:1017A000F30160837183828393832DA13EA14FA1B6
:1017B00058A56D817E818F8198850E94750CF301FB
:1017C000648375838683978329A53AA54BA55CA579
:1017D00069857A858B859C850E94750CF3016087ED
:1017E000718782879387C30160960FB6F894DEBF36
:1017F0000FBECDBFDF91CF911F910F91FF90EF9062
:10180000DF90CF90BF90AF909F908F907F906F9020
:1018100008950F93CF93DF93EC01DB01CA018C5243
:101820009140A109B109853D904CA140B10508F056
:1018300040C025502430E8F580E2888388E1898320
:10184000220F2A83053421F48A8180628A8305C0AD
:101850000F3419F48A8180638A83DB01CA018058BE
:101860009B47A14EBF4F880F991FAA1FBB1F880F10
:10187000991FAA1FBB1F880F991FAA1FBB1F440FC8
:10188000551F661F771F440F551F661F771F9A014C
:10189000AB01220F331F441F551F220F331F441F5C
:1018A000551FBC01CD010E94830F215031093D839A
:1018B0002C83DF91CF910F910895FC0190819923A2
:1018C000ECF7868108959F939F770E94E60D0F9015
:1018D000002042F49058A2EA2AED3FE049E450E4A7
:1018E0000E948C0C0C947C0E5058BB27AA270E9497
:1018F0008C0C0C947C0E0E946E0E38F00E94750EBB
:1019000020F039F49F3F19F426F40C94300E0EF4B5
:10191000E095E7FB0C942A0EE92F0E948D0E58F3F8
:10192000BA17620773078407950720F079F4A6F5C4
:101930000C94AF0E0EF4E0950B2EBA2FA02D0B01D8
:10194000B90190010C01CA01A0011124FF27591B04
:1019500099F0593F50F4503E68F11A16F040A22F0A
:10196000232F342F4427585FF3CF4695379527957B
:10197000A795F0405395C9F77EF41F16BA0B620B7A
:10198000730B840BBAF09150A1F0FF0FBB1F661FC1
:10199000771F881FC2F70EC0BA0F621F731F841F04
:1019A00048F4879577956795B795F7959E3F08F02A
:1019B000B0CF9395880F08F09927EE0F97958795EC
:1019C00008959F939F77EEE389379E0728F4ECE80C
:1019D000F0E00E945A0E0CC00E94E60D9058A2EA58
:1019E0002AED3FE049EC5FE30E948C0C0E947C0EE4
:1019F0000F9007FC905808950E94060E08F481E0AD
:101A000008950E94150D0C947C0E0E94750E58F0DE
:101A10000E946E0E40F029F45F3F29F00C942A0ECC
:101A200051110C94B00E0C94300E0E948D0E68F380
:101A30009923B1F3552391F3951B550BBB27AA2787
:101A400062177307840738F09F5F5F4F220F331FC1
:101A5000441FAA1FA9F335D00E2E3AF0E0E832D089
:101A600091505040E695001CCAF72BD0FE2F29D08C
:101A7000660F771F881FBB1F261737074807AB075E
:101A8000B0E809F0BB0B802DBF01FF2793585F4FD3
:101A90003AF09E3F510578F00C942A0E0C94B00E4B
:101AA0005F3FE4F3983ED4F3869577956795B795B5
:101AB000F7959F5FC9F7880F911D9695879597F9C0
:101AC0000895E1E0660F771F881FBB1F6217730739
:101AD0008407BA0720F0621B730B840BBA0BEE1F4E
:101AE00088F7E09508950E947A0D6894B1110C94DE
:101AF000B00E08950E94950E88F09F5798F0B92F68
:101B00009927B751B0F0E1F0660F771F881F991F32
:101B10001AF0BA95C9F714C0B13091F00E94AF0E17
:101B2000B1E008950C94AF0E672F782F8827B85F27
:101B300039F0B93FCCF3869577956795B395D9F78A
:101B40003EF490958095709561957F4F8F4F9F4F94
:101B50000895E89409C097FB3EF4909580957095A0
:101B600061957F4F8F4F9F4F9923A9F0F92F96E9E9
:101B7000BB279395F695879577956795B795F1115E
:101B8000F8CFFAF4BB0F11F460FF1BC06F5F7F4FFB
:101B90008F4F9F4F16C0882311F096E911C077230D
:101BA00021F09EE8872F762F05C0662371F096E816
:101BB000862F70E060E02AF09A95660F771F881FE5
:101BC000DAF7880F9695879597F90895DF93CF9365
:101BD0001F930F938B01EC01E0EAF0E00E94330EBB
:101BE0000E947C0E9801AE018B01EC0160E070E078
:101BF00080E89FE30E94740C0E942E0F9801AE01B2
:101C00000F911F91CF91DF910C94CE0E990F000888
:101C1000550FAA0BE0E8FEEF16161706E807F907BE
:101C2000C0F012161306E407F50798F0621B730B59
:101C3000840B950B39F40A2661F0232B242B252BDA
:101C400021F408950A2609F4A140A6958FEF811D7D
:101C5000811D089597F99F6780E870E060E008951E
:101C60009FEF80EC0895DF93CF931F930F93FF9224
:101C7000EF92DF927B018C01689406C0DA2EEF01AF
:101C80000E94CE0EFE01E894A591259135914591D3
:101C90005591A6F3EF010E948C0CFE019701A8015B
:101CA000DA9469F7DF90EF90FF900F911F91CF9139
:101CB000DF9108959F938F937F936F93FF93EF939B
:101CC0009B01AC010E94BB0EEF91FF910E94330E6D
:101CD0002F913F914F915F910C94BB0E00240A9479
:101CE0001616170618060906089500240A941216F7
:101CF0001306140605060895092E0394000C11F42A
:101D0000882352F0BB0F40F4BF2B11F460FF04C0D6
:101D10006F5F7F4F8F4F9F4F089557FD9058440F2F
:101D2000551F59F05F3F71F04795880F97FB991F3A
:101D300061F09F3F79F087950895121613061406F7
:101D4000551FF2CF4695F1DF08C016161706180684
:101D5000991FF1CF86957105610508940895E8945F
:101D6000BB2766277727CB0197F908950E94060EB7
:101D700008F48FEF08950E94CE0E0C947C0E0E9402
:101D80006E0E38F00E94750E20F0952311F00C9421
:101D90002A0E0C94300E11240C94B00E0E948D0E5D
:101DA00070F3959FC1F3950F50E0551F629FF001AE
:101DB000729FBB27F00DB11D639FAA27F00DB11DC7
:101DC000AA1F649F6627B00DA11D661F829F222750
:101DD000B00DA11D621F739FB00DA11D621F839FD7
:101DE000A00D611D221F749F3327A00D611D231FAD
:101DF000849F600D211D822F762F6A2F11249F57FB
:101E000050409AF0F1F088234AF0EE0FFF1FBB1FFD
:101E1000661F771F881F91505040A9F79E3F5105BC
:101E200080F00C942A0E0C94B00E5F3FE4F3983EC1
:101E3000D4F3869577956795B795F795E7959F5F66
:101E4000C1F7FE2B880F911D9695879597F90895F8
:101E500019F416F40C94300E0C946E0F0E94950E2B
:101E6000B8F39923C9F3B6F39F57550B87FF0E9428
:101E70007C0F0024A0E640EA900180585695979583
:101E800028F4805C660F771F881F20F0261737071D
:101E9000480730F4621B730B840B202931294A2B2D
:101EA000A69517940794202531254A2758F7660FE1
:101EB000771F881F20F026173707480730F4620B7A
:101EC000730B840B200D311D411DA09581F7B901C5
:101ED000842F9158880F9695879508959F3F31F0EC
:101EE000915020F4879577956795B795880F911D48
:101EF0009695879597F9089591505040660F771FF2
:101F0000881FD2F70895A1E21A2EAA1BBB1BFD0160
:101F10000DC0AA1FBB1FEE1FFF1FA217B307E407C8
:101F2000F50720F0A21BB30BE40BF50B661F771F20
:101F3000881F991F1A9469F7609570958095909500
:101F40009B01AC01BD01CF010895EE0FFF1F05906D
:101F5000F491E02D09940E94B60FA59F900DB49FB7
:101F6000900DA49F800D911D11240895A29FB00192
:101F7000B39FC001A39F700D811D1124911DB29FBD
:0E1F8000700D811D1124911D0895F894FFCF5E
:101F8E00000000000000F0420000F04200000000DF
:00000001FF
