S01A00004A6F79537469636B436F6E74726F6C6C65722E73726563B6
S11300000C9435000C9413010C945D000C945D0069
S11300100C945D000C945D000C945D000C945D00E8
S11300200C945D000C945D000C945D000C945D00D8
S11300300C945D000C944F010C945D000C945D00D5
S11300400C945D000C945D000C945D000C945D00B8
S11300500C945D000C945D000C945D000C945D00A8
S11300600C945D000C945D00D70111241FBECFEFEA
S1130070D8E0DEBFCDBF11E0A0E0B1E0E8EAF2E1F4
S113008002C005900D92AC33B107D9F721E0ACE37F
S1130090B1E001C01D92A834B207E1F710E0C5E356
S11300A0D0E004C02197FE010E946206C433D10748
S11300B0C9F70E9480010C9452090C940000ECE7EB
S11300C0F0E0808180648083EAE7F0E080818768E3
S11300D080830895ECE7F0E08081807F6F70682B67
S11300E06083EAE7F0E0808180648083808186FD1C
S11300F0FDCF8091780090917900089581E0089572
S1130100089524E131E0FC0131832083089589B10D
S113011082FB882780F991E08927089581E490E0A3
S1130120FB01918380830895CF93DF93EC010E94B8
S113013081008CE191E099838883DF91CF910895C8
S113014081E00895CF92DF92EF92FF920F931F9375
S1130150CF93DF931F92CDB7DEB7F62EE72E8C0137
S11301600E5F1F4F60E0C8010E946A006C0161E0ED
S1130170C8010E946A008C01CE0101960E94E4012C
S1130180A801B601CE0101960E943A031F928F93F3
S113019080E291E09F938F93EF92FF920E94680612
S11301A00F900F900F900F900F900F900F90DF9182
S11301B0CF911F910F91FF90EF90DF90CF90089512
S11301C0CF93DF93D82FC92F0E9481008D2F9C2FAE
S11301D027E231E0FC0121933193CF010E945F00BB
S11301E0DF91CF91089589B182FB882780F991E04E
S11301F08927089589E390E0FB0191838083089522
S1130200CF93DF93EC010E9481008FE291E0998308
S11302108883DF91CF9108958BE0809385008CEDE6
S11302208093840008951F920F920FB60F921124A9
S11302302F933F934F935F936F937F938F939F93EA
S1130240AF93BF93EF93FF9380913C01882381F098
S1130250E1E8F0E08081887F80830E940C011092A5
S11302603C018FE391E0909345018093440106C0E3
S113027081E080933C0183E080938100FF91EF91C2
S1130280BF91AF919F918F917F916F915F914F91AA
S11302903F912F910F900FBE0F901F9018951F92B2
S11302A00F920FB60F9211242F933F934F935F93A6
S11302B06F937F938F939F93AF93BF93EF93FF932A
S11302C0E1E8F0E08081887F80830E940C01109235
S11302D03C018DE391E09093450180934401FF91AB
S11302E0EF91BF91AF919F918F917F916F915F91AA
S11302F04F913F912F910F900FBE0F901F90189523
S1130300CF93DF93CDB7DEB764970FB6F894DEBF13
S11303100FBECDBF00E028E040E855E260E070E0A9
S113032080EC90E00E94E003E9E6F0E080818260E6
S11303308083E89A1AB880E18AB90E940C0110926D
S1130340800081E080936F00789401E411E01093C1
S11303504501009344018091440190914501DC01E1
S1130360ED91FC910190F081E02D0995882379F3BA
S11303708091440190914501DC01ED91FC91028052
S1130380F381E02DBE016F5F7F4F0995BE016F5F62
S11303907F4F80EC90E00E943A04BFEF20E782E0B8
S11303A0B15020408040E1F700C00000D4CF81E488
S11303B091E00E94E0008FE391E00E9494008DE3BD
S11303C091E00E94000108950895EF92FF921F9317
S11303D0CF93DF93CDB7DEB728970FB6F894DEBF7F
S11303E00FBECDBF7B01BA0180E090E00E94C10442
S11303F020E030E040E054E40E944F0420E030E08C
S113040040E05BE30E947805162F462F572F682F94
S1130410792F49835A836B837C83B70180E090E012
S11304200E94C10420E030E040E054E40E944F0404
S113043020E030E040E05BE30E947805E62F462FA1
S1130440572F682F792F4D835E836F837887212FF1
S11304503A814B815C816E2F7E818F8198852896AD
S11304600FB6F894DEBF0FBECDBFDF91CF911F91C1
S1130470FF90EF9008952F923F924F925F926F9268
S11304807F928F929F92AF92BF92CF92DF92EF9220
S1130490FF920F931F93CF93DF93CDB7DEB7689787
S11304A00FB6F894DEBF0FBECDBF1C0109831A83BB
S11304B02B833C834D835E836F83788789869A86FA
S11304C0AB86BC86CD86DE86EF86F88A8DA59EA592
S11304D0AFA5B8A9898B9A8BAB8BBC8B49A85AA8BA
S11304E06BA87CA8C980DA80EB80FC808D809E801C
S11304F0AF80B88429853A854B855C85C501B401F4
S11305000E9478056D8B7E8B8F8B988F2D853E8511
S11305104F855889C701B6010E9478059B01AC013B
S11305206D897E898F89988D0E944F0420E030E088
S1130530A9010E94730518164CF5A5019401698957
S11305407A898B899C890E9478054B015C01A301FF
S11305509201C701B6010E9478059B01AC01C50157
S1130560B4010E944F0420E030E0A9010E94BC04C1
S1130570882364F4E0914601F0914701ED5CFE4F5D
S1130580808110924701109246015BC021E834E05B
S113059045E35FE369897A898B899C890E947805A0
S11305A06B017C0121E834E045E35FE3C301B20160
S11305B00E9478054B015C018091460190914701AE
S11305C001969093470180934601A5019401C701C8
S11305D0B6010E944F0469877A878B879C87A5019F
S11305E09401C701B6010E9450046D877E878F87EE
S11305F0988BADB7BEB718970FB6F894BEBF0FBEB1
S1130600ADBF119688E0FE01399601900D928A954E
S1130610E1F78DA49EA4AFA4B8A8C9A8DAA8EBA852
S1130620FCA809811A812B813C814D815E816F81F7
S11306307885C1010E943B020FB6F894DEBF0FBE5D
S1130640CDBF68960FB6F894DEBF0FBECDBFDF9165
S1130650CF911F910F91FF90EF90DF90CF90BF90BB
S1130660AF909F908F907F906F905F904F903F904E
S11306702F9008956F927F928F929F92AF92BF9224
S1130680CF92DF92EF92FF920F931F93CF93DF935A
S1130690CDB7DEB76C970FB6F894DEBF0FBECDBFF3
S11306A03C0188E0E0E0F1E0DE01119601900D925A
S11306B08A95E1F788E0E8E0F1E0DE01199601901F
S11306C00D928A95E1F7C3010E94E501298B3A8BCB
S11306D04B8B5C8B6D8B7E8B8F8B988F89889A88E4
S11306E0AB88BC88CD88DE88EF88F88CA50194019E
S11306F0C501B4010E947805698F7A8F8B8F9C8F16
S1130700A5019401C501B4010E9478054B015C0167
S1130710A7019601C701B6010E9478059B01AC01AF
S1130720C501B4010E9450040E94EB052DEC3CEC81
S11307304CEC5EE30E947305882364F12DB73EB749
S1130740285031090FB6F8943EBF0FBE2DBFADB788
S1130750BEB7119688E0FE01319601900D928A95FC
S1130760E1F789849A84AB84BC84CD84DE84EF84ED
S1130770F88809891A892B893C894D895E896F8992
S1130780788DC3010E943B020FB6F894DEBF0FBE02
S1130790CDBF01C084E06C960FB6F894DEBF0FBEE7
S11307A0CDBFDF91CF911F910F91FF90EF90DF901C
S11307B0CF90BF90AF909F908F907F906F9008954F
S11307C00F93CF93DF93EC01DB01CA018C5291406C
S11307D0A109B109853D904CA140B10508F040C084
S11307E025502430E8F580E2888388E18983220F4C
S11307F02A83053421F48A8180628A8305C00F34F8
S113080019F48A8180638A83DB01CA0180589B477B
S1130810A14EBF4F880F991FAA1FBB1F880F991F96
S1130820AA1FBB1F880F991FAA1FBB1F440F551F68
S1130830661F771F440F551F661F771F9A01AB0170
S1130840220F331F441F551F220F331F441F551FF0
S1130850BC01CD010E944006215031093D832C8307
S1130860DF91CF910F910895FC01908195FFFDCF09
S1130870668308950F931F93CF93DF93EB016881F1
S1130880662341F08C012196C8010E9434046991C9
S11308906111FACFDF91CF911F910F9108955058B4
S11308A0BB27AA270E9467040C9439050E942B05D4
S11308B038F00E94320520F039F49F3F19F426F4F1
S11308C00C9428050EF4E095E7FB0C942205E92F1F
S11308D00E944A0558F3BA176207730784079507FD
S11308E020F079F4A6F50C946C050EF4E0950B2E2B
S11308F0BA2FA02D0B01B90190010C01CA01A0016E
S11309001124FF27591B99F0593F50F4503E68F1C8
S11309101A16F040A22F232F342F4427585FF3CF09
S1130920469537952795A795F0405395C9F77EF4DA
S11309301F16BA0B620B730B840BBAF09150A1F023
S1130940FF0FBB1F661F771F881FC2F70EC0BA0FA9
S1130950621F731F841F48F4879577956795B79531
S1130960F7959E3F08F0B0CF9395880F08F099272C
S1130970EE0F9795879508950E94FE0408F481E090
S11309800895E89409C097FB3EF49095809570957E
S113099061957F4F8F4F9F4F9923A9F0F92F96E9C7
S11309A0BB279395F695879577956795B795F1113C
S11309B0F8CFFAF4BB0F11F460FF1BC06F5F7F4FD9
S11309C08F4F9F4F16C0882311F096E911C07723EB
S11309D021F09EE8872F762F05C0662371F096E8F4
S11309E0862F70E060E02AF09A95660F771F881FC3
S11309F0DAF7880F9695879597F90895990F000867
S1130A00550FAA0BE0E8FEEF16161706E807F907DC
S1130A10C0F012161306E407F50798F0621B730B77
S1130A20840B950B39F40A2661F0232B242B252BF8
S1130A3021F408950A2609F4A140A6958FEF811D9B
S1130A40811D089597F99F6780E870E060E008953C
S1130A509FEF80EC089500240A94161617061806D2
S1130A600906089500240A941216130614060506AE
S1130A700895092E0394000C11F4882352F0BB0F3F
S1130A8040F4BF2B11F460FF04C06F5F7F4F8F4FA2
S1130A909F4F089557FD9058440F551F59F05F3FDD
S1130AA071F04795880F97FB991F61F09F3F79F08C
S1130AB087950895121613061406551FF2CF46950E
S1130AC0F1DF08C0161617061806991FF1CF869590
S1130AD07105610508940895E894BB276627772774
S1130AE0CB0197F908950E94FE0408F48FEF08954E
S1130AF00E948B050C9439050E942B0538F00E9446
S1130B00320520F0952311F00C9422050C9428054D
S1130B1011240C946D050E944A0570F3959FC1F34E
S1130B20950F50E0551F629FF001729FBB27F00D97
S1130B30B11D639FAA27F00DB11DAA1F649F6627EC
S1130B40B00DA11D661F829F2227B00DA11D621F3B
S1130B50739FB00DA11D621F839FA00D611D221FF5
S1130B60749F3327A00D611D231F849F600D211DD9
S1130B70822F762F6A2F11249F5750409AF0F1F05C
S1130B8088234AF0EE0FFF1FBB1F661F771F881FC5
S1130B9091505040A9F79E3F510580F00C942205D6
S1130BA00C946D055F3FE4F3983ED4F386957795F6
S1130BB06795B795F795E7959F5FC1F7FE2B880F6B
S1130BC0911D9695879597F9089519F416F40C9448
S1130BD028050C942B060E945205B8F39923C9F3F7
S1130BE0B6F39F57550B87FF0E9439060024A0E6F1
S1130BF040EA900180585695979528F4805C660FDA
S1130C00771F881F20F026173707480730F4621B28
S1130C10730B840B202931294A2BA695179407942A
S1130C20202531254A2758F7660F771F881F20F0A3
S1130C3026173707480730F4620B730B840B200D1B
S1130C40311D411DA09581F7B901842F9158880F5A
S1130C509695879508959F3F31F0915020F487959C
S1130C6077956795B795880F911D9695879597F910
S1130C70089591505040660F771F881FD2F708954A
S1130C80A1E21A2EAA1BBB1BFD010DC0AA1FBB1F8C
S1130C90EE1FFF1FA217B307E407F50720F0A21BFE
S1130CA0B30BE40BF50B661F771F881F991F1A946B
S1130CB069F760957095809590959B01AC01BD0195
S1130CC0CF010895EE0FFF1F0590F491E02D0994D4
S1130CD0AEE0B0E0EEE6F6E00C9429090D891E8939
S1130CE086E08C831A8309838FEF9FE79E838D832D
S1130CF0AE01475E5F4F6F89788DCE0101960E94E9
S1130D008A06EF81F885E00FF11F10822E96E4E049
S1130D100C944509ABE0B0E0E0E9F6E00C941B0963
S1130D206C017B018A01FC0117821682838181FF99
S1130D30CCC1CE0101963C01F6019381F70193FDEC
S1130D40859193FF81917F01882309F4BAC185328B
S1130D5039F493FD859193FF81917F01853229F4C4
S1130D60B60190E00E948108E7CF912C212C312C10
S1130D70FFE1F315D8F08B3279F038F4803279F052
S1130D808332A1F4232D20611DC08D3261F08033A4
S1130D9069F4232D216016C0832D8260382EE32D43
S1130DA0E4603E2E2AC0F32DF8601DC037FC2DC030
S1130DB020ED280F2A3040F08E32B9F436FC81C180
S1130DC0232D2064322E19C036FE06C08AE0989E78
S1130DD0200D1124922E11C0EAE02E9E200D112424
S1130DE0222EF32DF0623F2E08C08C3621F4832D81
S1130DF08068382E02C0883641F4F70193FD85914E
S1130E0093FF81917F018111B3CF982F9F7D9554DA
S1130E10933028F40C5F1F4F9FE399830DC08336F2
S1130E2031F0833771F0833509F059C021C0F801DE
S1130E30808189830E5F1F4F88248394912C5301F2
S1130E4013C02801F2E04F0E511CF801A080B180BC
S1130E5036FE03C0692D70E002C06FEF7FEFC5015D
S1130E600E9476084C018201F32DFF773F2E16C0B5
S1130E70280122E0420E511CF801A080B18036FE08
S1130E8003C0692D70E002C06FEF7FEFC5010E94BF
S1130E906B084C01F32DF0683F2E820133FC1BC01C
S1130EA0822D90E088169906B0F4B60180E290E0B5
S1130EB00E9481082A94F4CFF50137FC859137FE0E
S1130EC081915F01B60190E00E94810821102A946B
S1130ED021E0821A91088114910471F7E8C08436E4
S1130EE011F0893641F5F80137FE07C06081718140
S1130EF0828193810C5F1F4F08C060817181072E2E
S1130F00000C880B990B0E5F1F4FF32DFF763F2EBD
S1130F1097FF09C090958095709561957F4F8F4F8D
S1130F209F4FF0683F2E2AE030E0A3010E94BD08E5
S1130F30882E861845C0853731F4232D2F7EB22E96
S1130F402AE030E025C0932D997FB92E8F36C1F069
S1130F5018F4883579F0B5C0803719F0883721F056
S1130F60B0C0E92FE061BE2EB4FE0DC0FB2DF460CD
S1130F70BF2E09C034FE0AC0292F2660B22E06C037
S1130F8028E030E005C020E130E002C020E132E09A
S1130F90F801B7FE07C060817181828193810C5F83
S1130FA01F4F06C06081718180E090E00E5F1F4F8B
S1130FB0A3010E94BD08882E8618FB2DFF773F2EC3
S1130FC036FE0DC0232D2E7FA22E891458F434FE34
S1130FD00BC032FC09C0832D8E7EA82E05C0B82C10
S1130FE0A32C03C0B82C01C0B92CA4FE0FC0FE0171
S1130FF0E80DF11D8081803321F49A2D997EA92E6C
S113100009C0A2FE06C0B394B39404C08A2D8678A6
S113101009F0B394A3FC11C0A0FE06C0B21488F476
S1131020280C922C9B180EC0B21460F4B60180E216
S113103090E00E948108B394F7CFB21418F42B18EF
S113104002C0982C212CA4FE10C0B60180E390E0CD
S11310500E948108A2FE17C0A1FC03C088E790E0AB
S113106002C088E590E0B6010CC08A2D867859F05C
S1131070A1FE02C08BE201C080E2A7FC8DE2B601B2
S113108090E00E948108891438F4B60180E390E06E
S11310900E9481089A94F7CF8A94F301E80DF11D18
S11310A08081B60190E00E9481088110F5CF222052
S11310B009F442CEB60180E290E00E9481082A94AD
S11310C0F6CFF6018681978102C08FEF9FEF2B96B2
S11310D0E2E10C943709FC01059061507040011065
S11310E0D8F7809590958E0F9F1F0895FC0161504D
S11310F0704001900110D8F7809590958E0F9F1F36
S113110008950F931F93CF93DF93FB01238121FD58
S113111003C08FEF9FEF2CC022FF16C0468157817A
S1131120248135814217530744F4A081B1819D0184
S11311302F5F3F4F318320838C93268137812F5F2C
S11311403F4F3783268314C08B01EC01FB010084DD
S1131150F185E02D0995892BE1F6D80116968D913C
S11311609C911797019617969C938E931697CE0190
S1131170DF91CF911F910F910895FA01AA2728308A
S113118051F1203181F1E8946F936E7F6E5F7F4F50
S11311908F4F9F4FAF4FB1E03ED0B4E03CD0670FCC
S11311A0781F891F9A1FA11D680F791F8A1F911D1F
S11311B0A11D6A0F711D811D911DA11D20D009F46F
S11311C068943F912AE0269F11243019305D3193B1
S11311D0DEF6CF010895462F4770405D4193B3E09A
S11311E00FD0C9F7F6CF462F4F70405D4A3318F041
S11311F0495D31FD4052419302D0A9F7EACFB4E0F2
S1131200A6959795879577956795BA95C9F70097A9
S11312106105710508959B01AC010A2E069457954A
S1131220479537952795BA95C9F7620F731F841FA1
S1131230951FA01D08952F923F924F925F926F9237
S11312407F928F929F92AF92BF92CF92DF92EF9252
S1131250FF920F931F93CF93DF93CDB7DEB7CA1BD3
S1131260DB0B0FB6F894DEBF0FBECDBF09942A88FE
S1131270398848885F846E847D848C849B84AA84A6
S1131280B984C884DF80EE80FD800C811B81AA8133
S1131290B981CE0FD11D0FB6F894DEBF0FBECDBFFE
S10B12A0ED010895F894FFCF5D
S11312A8B6846C3F41F1C33EB6846C3F41F1C3BE82
S11312B8000000007E0080000000000087008E000F
S11312C825640000000000A000A20000000000F354
S10F12D800FA00070805020100030600EC
S9030000FC
