:100000000C9435000C9401010C945D000C945D007F
:100010000C945D000C945D000C945D000C945D00EC
:100020000C945D000C945D000C945D000C945D00DC
:100030000C945D000C943D010C945D000C945D00EB
:100040000C945D000C945D000C945D000C945D00BC
:100050000C945D000C945D000C945D000C945D00AC
:100060000C945D000C945D00C30111241FBECFEF02
:10007000D8E0DEBFCDBF11E0A0E0B1E0EAE2F5E0FC
:1000800002C005900D92AE32B107D9F721E0AEE281
:10009000B1E001C01D92A833B207E1F710E0C5E35B
:1000A000D0E004C02197FE010E948D02C433D10725
:1000B000C9F70E946E010C9493020C940000ECE7C7
:1000C000F0E0808180648083EAE7F0E080818768E7
:1000D00080830895ECE7F0E08081807F6F70682B6B
:1000E0006083EAE7F0E0808180648083808186FD20
:1000F000FDCF8091780090917900089581E0089576
:10010000089524E031E0FC013183208308958AE0E2
:10011000FB0180831182089589B182FB882780F9D1
:1001200091E089270895CF93DF93EC010E9481002D
:100130008CE091E099838883DF91CF91089581E0ED
:100140000895CF92DF92EF92FF920F931F93CF9378
:10015000DF931F92CDB7DEB78B0102967C0160E082
:100160000E946A006C0161E0C7010E946A007C0184
:10017000CE0101960E94D001A701B601CE010196E1
:100180000E94D101F801808311820F90DF91CF91FD
:100190001F910F91FF90EF90DF90CF900895CF9334
:1001A000DF93D82FC92F0E9481008D2F9C2F24E12F
:1001B00031E0FC0121933193CF010E945F00DF9178
:1001C000CF91089589B182FB882780F991E0892732
:1001D000089589E0FB01808311820895CF93DF9316
:1001E000EC010E9481008CE191E099838883DF918A
:1001F000CF9108958BE0809385008CED80938400EF
:1002000008951F920F920FB60F9211242F933F93D0
:100210004F935F936F937F938F939F93AF93BF930E
:10022000EF93FF9380912E01882381F0E1E8F0E0C5
:100230008081887F80830E94FA0010922E0181E3E2
:1002400091E0909337018093360106C081E080935E
:100250002E0183E080938100FF91EF91BF91AF91D8
:100260009F918F917F916F915F914F913F912F91CE
:100270000F900FBE0F901F9018951F920F920FB600
:100280000F9211242F933F934F935F936F937F931C
:100290008F939F93AF93BF93EF93FF93E1E8F0E0C9
:1002A0008081887F80830E94FA0010922E018FE265
:1002B00091E09093370180933601FF91EF91BF91C8
:1002C000AF919F918F917F916F915F914F913F91EE
:1002D0002F910F900FBE0F901F901895CF93DF9323
:1002E000CDB7DEB765970FB6F894DEBF0FBECDBFB2
:1002F00000E815E220E030E040E054E264EF70E016
:10030000CE0101960E944202E9E6F0E0808182601F
:100310008083E89A80E18AB90E94FA0010928000F6
:1003200081E080936F00789403E311E0109337012C
:10033000009336018091360190913701DC01ED91F7
:10034000FC910190F081E02D0995882379F380914B
:10035000360190913701DC01ED91FC910280F3812F
:10036000E02DBE016E5F7F4F0995BE016E5F7F4F2E
:10037000CE0101960E942C026BE271E0CE01019643
:100380000E942C02D7CF83E391E00E94CF0081E34B
:1003900091E00E9493008FE291E00E94EE000895A8
:1003A0000895660F771FCA01880F991F880F991F3C
:1003B000480F591F460F571FCA018A5B9340853665
:1003C000910580F481E0089582E0089583E0089526
:1003D00084E0089585E0089586E0089587E0089513
:1003E00087E00895CA018A5997408D3C910560F3D2
:1003F000875B91408C3F910548F3895B9340813640
:1004000021E0920728F3805E9340893C21E0920727
:1004100008F386519240813022E09207E8F28A5B2D
:10042000934085369240D0F24A595A414D3C524051
:10043000B8F284E00895CF93C62F6A3019F46DE0C6
:100440000E941B02E0ECF0E0808185FFFDCFC093AD
:10045000C60080E0CF9108950F931F93CF93DF9351
:10046000EB016881662341F08C012196C8010E944E
:100470001B0269916111FACF80E0DF91CF911F914A
:100480000F9108950F931F93CF93DF93EC01CB014E
:10049000BA01689413F896958795779567951694A1
:1004A000D1F7A90198010E946B02215031093093C4
:1004B000C5002093C40088E18093C10086E080934A
:1004C000C20060E271E0CE010E942C02DF91CF9168
:1004D0001F910F910895A1E21A2EAA1BBB1BFD01CB
:1004E0000DC0AA1FBB1FEE1FFF1FA217B307E40713
:1004F000F50720F0A21BB30BE40BF50B661F771F6B
:10050000881F991F1A9469F760957095809590954A
:100510009B01AC01BD01CF010895EE0FFF1F0590B7
:0A052000F491E02D0994F894FFCF48
:10052A00000000007E008000000000008C008700B0
:10053A00000000009F00A10000000000E200E900A6
:0E054A00496E697469616C697A65640A000023
:00000001FF
