S01A00004A6F79537469636B436F6E74726F6C6C65722E73726563B6
S11300000C9434000C9451000C9451000C94510045
S11300100C9451000C9451000C9451000C94510018
S11300200C9451000C9451000C9451000C94510008
S11300300C9451000C9451000C9451000C945100F8
S11300400C9451000C9451000C9451000C945100E8
S11300500C9451000C9451000C9451000C945100D8
S11300600C9451000C94510011241FBECFEFD8E022
S1130070DEBFCDBF11E0A0E0B1E0ECE2F2E002C0EF
S113008005900D92A431B107D9F721E0A4E1B1E0C4
S113009001C01D92A431B207E1F70E9478000C94CC
S11300A014010C940000FC016083ECE7F0E0808113
S11300B080648083EAE7F0E0808187688083089524
S11300C0DC01ECE7F0E090818C91282F2F70892FD0
S11300D0807F822B8083EAE7F0E0808180648083E4
S11300E0808186FDFDCF80917800909179000895FC
S11300F0CF93DF9300D0CDB7DEB760E0CE01019699
S11301000E94530000E815E220E030E040E054E2B1
S113011064EF70E0CE0102960E94C900CE01019600
S11301200E94600060E071E0CE0102960E94B3007C
S11301302FEF89E698E1215080409040E1F700C01C
S11301400000ECCFCF93C62F6A3019F46DE00E9403
S1130150A200E0ECF0E0808185FFFDCFC093C600F3
S113016080E0CF9108950F931F93CF93DF93EB011A
S11301706881662341F08C012196C8010E94A20087
S113018069916111FACF80E0DF91CF911F910F91B6
S113019008950F931F93CF93DF93EC01CB01BA0122
S11301A0689413F896958795779567951694D1F783
S11301B0A90198010E94F200215031093093C50031
S11301C02093C40088E18093C10086E08093C2003C
S11301D066E071E0CE010E94B300DF91CF911F91E0
S11301E00F910895A1E21A2EAA1BBB1BFD010DC09D
S11301F0AA1FBB1FEE1FFF1FA217B307E407F507D3
S113020020F0A21BB30BE40BF50B661F771F881FAE
S1130210991F1A9469F760957095809590959B0144
S10F0220AC01BD01CF010895F894FFCF9C
S113022C48656C6C6F00496E697469616C697A65B8
S107023C640A00004C
S9030000FC
