S01A00004A6F79537469636B436F6E74726F6C6C65722E73726563B6
S11300000C9435000C9413010C945D000C945D0069
S11300100C945D000C945D000C945D000C945D00E8
S11300200C945D000C945D000C945D000C945D00D8
S11300300C945D000C944F010C945D000C945D00D5
S11300400C945D000C945D000C945D000C945D00B8
S11300500C945D000C945D000C945D000C945D00A8
S11300600C945D000C945D00D70111241FBECFEFEA
S1130070D8E0DEBFCDBF11E0A0E0B1E0E4E6FBE0F4
S113008002C005900D92A432B107D9F721E0A4E291
S1130090B1E001C01D92AE32B207E1F710E0C5E352
S11300A0D0E004C02197FE010E94C002C433D107EE
S11300B0C9F70E9480010C94B0050C940000ECE791
S11300C0F0E0808180648083EAE7F0E080818768E3
S11300D080830895ECE7F0E08081807F6F70682B67
S11300E06083EAE7F0E0808180648083808186FD1C
S11300F0FDCF8091780090917900089581E0089572
S1130100089524E031E0FC0131832083089589B10E
S113011082FB882780F991E08927089581E490E0A3
S1130120FB01918380830895CF93DF93EC010E94B8
S113013081008CE091E099838883DF91CF910895C9
S113014081E00895CF92DF92EF92FF920F931F9375
S1130150CF93DF931F92CDB7DEB7F62EE72E8C0137
S11301600E5F1F4F60E0C8010E946A006C0161E0ED
S1130170C8010E946A008C01CE0101960E94E4012C
S1130180A801B601CE0101960E94E5011F928F934A
S113019080E191E09F938F93EF92FF920E94C602B9
S11301A00F900F900F900F900F900F900F90DF9182
S11301B0CF911F910F91FF90EF90DF90CF90089512
S11301C0CF93DF93D82FC92F0E9481008D2F9C2FAE
S11301D027E131E0FC0121933193CF010E945F00BC
S11301E0DF91CF91089589B182FB882780F991E04E
S11301F08927089589E390E0FB0191838083089522
S1130200CF93DF93EC010E9481008FE191E0998309
S11302108883DF91CF9108958BE0809385008CEDE6
S11302208093840008951F920F920FB60F921124A9
S11302302F933F934F935F936F937F938F939F93EA
S1130240AF93BF93EF93FF9380912401882381F0B0
S1130250E1E8F0E08081887F80830E940C011092A5
S1130260240187E291E090932D0180932C0106C034
S113027081E08093240183E080938100FF91EF91DA
S1130280BF91AF919F918F917F916F915F914F91AA
S11302903F912F910F900FBE0F901F9018951F92B2
S11302A00F920FB60F9211242F933F934F935F93A6
S11302B06F937F938F939F93AF93BF93EF93FF932A
S11302C0E1E8F0E08081887F80830E940C01109235
S11302D0240185E291E090932D0180932C01FF91FC
S11302E0EF91BF91AF919F918F917F916F915F91AA
S11302F04F913F912F910F900FBE0F901F90189523
S1130300CF93DF93CDB7DEB764970FB6F894DEBF13
S11303100FBECDBF00E028E040E855E260E070E0A9
S113032080EC90E00E942F02E9E6F0E08081826098
S11303308083E89A1AB880E18AB90E940C0110926D
S1130340800081E080936F00789409E211E01093BB
S11303502D0100932C0180912C0190912D01DC0141
S1130360ED91FC910190F081E02D0995882379F3BA
S113037080912C0190912D01DC01ED91FC91028082
S1130380F381E02DBE016F5F7F4F0995BE016F5F62
S11303907F4F80EC90E00E948902BFEF20E782E06B
S11303A0B15020408040E1F700C00000D4CF89E282
S11303B091E00E94E00087E291E00E94940085E2CF
S11303C091E00E94000108950895660F771FCA0105
S11303D0880F991F880F991F480F591F460F571FE1
S11303E0CA018A5B93408536910580F481E00895C3
S11303F082E0089583E0089584E0089585E00895F7
S113040086E0089587E0089587E00895CA018A592F
S113041097408D3C910560F3875B91408C3F91053B
S113042048F3895B9340813621E0920728F3805E8C
S11304309340893C21E0920708F386519240813031
S113044022E09207E8F28A5B934085369240D0F22C
S11304504A595A414D3C5240B8F284E008950F93F2
S1130460CF93DF93EC01DB01CA018C529140A109C7
S1130470B109853D904CA140B10508F040C025501C
S11304802430E8F580E2888388E18983220F2A8377
S1130490053421F48A8180628A8305C00F3419F4FB
S11304A08A8180638A83DB01CA0180589B47A14EFD
S11304B0BF4F880F991FAA1FBB1F880F991FAA1F20
S11304C0BB1F880F991FAA1FBB1F440F551F661F10
S11304D0771F440F551F661F771F9A01AB01220F28
S11304E0331F441F551F220F331F441F551FBC01C8
S11304F0CD010E949E02215031093D832C83DF915E
S1130500CF910F910895FC01908195FFFDCF6683F3
S113051008950F931F93CF93DF93EB0168816623B4
S113052041F08C012196C8010E94830269916111F6
S1130530FACFDF91CF911F910F910895A1E21A2E66
S1130540AA1BBB1BFD010DC0AA1FBB1FEE1FFF1F73
S1130550A217B307E407F50720F0A21BB30BE40BC3
S1130560F50B661F771F881F991F1A9469F760950A
S11305707095809590959B01AC01BD01CF010895C4
S1130580EE0FFF1F0590F491E02D0994AEE0B0E06A
S1130590ECECF2E00C9487050D891E8986E08C83CF
S11305A01A8309838FEF9FE79E838D83AE01475E95
S11305B05F4F6F89788DCE0101960E94E802EF812A
S11305C0F885E00FF11F10822E96E4E00C94A30549
S11305D0ABE0B0E0EEEEF2E00C9479056C017B0147
S11305E08A01FC0117821682838181FFCCC1CE016E
S11305F001963C01F6019381F70193FD859193FFE8
S113060081917F01882309F4BAC1853239F493FDBD
S1130610859193FF81917F01853229F4B60190E0A1
S11306200E94DF04E7CF912C212C312CFFE1F3153C
S1130630D8F08B3279F038F4803279F08332A1F437
S1130640232D20611DC08D3261F0803369F4232D88
S1130650216016C0832D8260382EE32DE4603E2E87
S11306602AC0F32DF8601DC037FC2DC020ED280FE3
S11306702A3040F08E32B9F436FC81C1232D206437
S1130680322E19C036FE06C08AE0989E200D112431
S1130690922E11C0EAE02E9E200D1124222EF32D5D
S11306A0F0623F2E08C08C3621F4832D8068382EEA
S11306B002C0883641F4F70193FD859193FF81913F
S11306C07F018111B3CF982F9F7D9554933028F4E7
S11306D00C5F1F4F9FE399830DC0833631F083373E
S11306E071F0833509F059C021C0F80180818983F4
S11306F00E5F1F4F88248394912C530113C028014B
S1130700F2E04F0E511CF801A080B18036FE03C008
S1130710692D70E002C06FEF7FEFC5010E94D40421
S11307204C018201F32DFF773F2E16C0280122E0F1
S1130730420E511CF801A080B18036FE03C0692D21
S113074070E002C06FEF7FEFC5010E94C9044C0145
S1130750F32DF0683F2E820133FC1BC0822D90E004
S113076088169906B0F4B60180E290E00E94DF0496
S11307702A94F4CFF50137FC859137FE81915F010E
S1130780B60190E00E94DF0421102A9421E0821A2D
S113079091088114910471F7E8C0843611F0893608
S11307A041F5F80137FE07C0608171818281938130
S11307B00C5F1F4F08C060817181072E000C880BED
S11307C0990B0E5F1F4FF32DFF763F2E97FF09C045
S11307D090958095709561957F4F8F4F9F4FF068EE
S11307E03F2E2AE030E0A3010E941B05882E8618C4
S11307F045C0853731F4232D2F7EB22E2AE030E018
S113080025C0932D997FB92E8F36C1F018F4883501
S113081079F0B5C0803719F0883721F0B0C0E92FDE
S1130820E061BE2EB4FE0DC0FB2DF460BF2E09C0E6
S113083034FE0AC0292F2660B22E06C028E030E01C
S113084005C020E130E002C020E132E0F801B7FE4B
S113085007C060817181828193810C5F1F4F06C044
S11308606081718180E090E00E5F1F4FA3010E94C0
S11308701B05882E8618FB2DFF773F2E36FE0DC0F4
S1130880232D2E7FA22E891458F434FE0BC032FC83
S113089009C0832D8E7EA82E05C0B82CA32C03C0BE
S11308A0B82C01C0B92CA4FE0FC0FE01E80DF11D47
S11308B08081803321F49A2D997EA92E09C0A2FE4D
S11308C006C0B394B39404C08A2D867809F0B39417
S11308D0A3FC11C0A0FE06C0B21488F4280C922C0C
S11308E09B180EC0B21460F4B60180E290E00E943E
S11308F0DF04B394F7CFB21418F42B1802C0982C69
S1130900212CA4FE10C0B60180E390E00E94DF0415
S1130910A2FE17C0A1FC03C088E790E002C088E5EE
S113092090E0B6010CC08A2D867859F0A1FE02C071
S11309308BE201C080E2A7FC8DE2B60190E00E9448
S1130940DF04891438F4B60180E390E00E94DF04E8
S11309509A94F7CF8A94F301E80DF11D8081B601D2
S113096090E00E94DF048110F5CF222009F442CEEA
S1130970B60180E290E00E94DF042A94F6CFF601EB
S11309808681978102C08FEF9FEF2B96E2E10C9452
S11309909505FC010590615070400110D8F78095D1
S11309A090958E0F9F1F0895FC0161507040019037
S11309B00110D8F7809590958E0F9F1F08950F937F
S11309C01F93CF93DF93FB01238121FD03C08FEF9E
S11309D09FEF2CC022FF16C04681578124813581A8
S11309E04217530744F4A081B1819D012F5F3F4F0B
S11309F0318320838C93268137812F5F3F4F378348
S1130A00268314C08B01EC01FB010084F185E02DE9
S1130A100995892BE1F6D80116968D919C9117972B
S1130A20019617969C938E931697CE01DF91CF91E2
S1130A301F910F910895FA01AA27283051F120310E
S1130A4081F1E8946F936E7F6E5F7F4F8F4F9F4F5E
S1130A50AF4FB1E03ED0B4E03CD0670F781F891FA0
S1130A609A1FA11D680F791F8A1F911DA11D6A0F6E
S1130A70711D811D911DA11D20D009F468943F9121
S1130A802AE0269F11243019305D3193DEF6CF0120
S1130A900895462F4770405D4193B3E00FD0C9F7E6
S1130AA0F6CF462F4F70405D4A3318F0495D31FD53
S1130AB04052419302D0A9F7EACFB4E0A6959795A6
S1130AC0879577956795BA95C9F70097610571057C
S1130AD008959B01AC010A2E0694579547953795C6
S1130AE02795BA95C9F7620F731F841F951FA01D20
S1130AF008952F923F924F925F926F927F928F92BE
S1130B009F92AF92BF92CF92DF92EF92FF920F9398
S1130B101F93CF93DF93CDB7DEB7CA1BDB0B0FB6A2
S1130B20F894DEBF0FBECDBF09942A88398848885F
S1130B305F846E847D848C849B84AA84B984C884F5
S1130B40DF80EE80FD800C811B81AA81B981CE0FEC
S1130B50D11D0FB6F894DEBF0FBECDBFED010895D1
S1070B60F894FFCF33
S1130B64000000007E0080000000000087008E006A
S1130B7425640000000000A000A20000000000F3AF
S1070B8400FA00006F
S9030000FC
