S01A00004A6F79537469636B436F6E74726F6C6C65722E73726563B6
S11300000C9435000C9466000C945D000C945D0017
S11300100C945D000C945D000C945D000C945D00E8
S11300200C945D000C945D000C945D000C945D00D8
S11300300C945D000C949C000C945D000C945D0089
S11300400C945D000C945D000C945D000C945D00B8
S11300500C945D000C945D000C945D000C945D00A8
S11300600C945D000C945D00DC0011241FBECFEFE6
S1130070D8E0DEBFCDBF11E0A0E0B1E0EEECF2E0ED
S113008002C005900D92AE30B107D9F721E0AEE081
S1130090B1E001C01D92A031B207E1F710E0C5E361
S11300A0D0E004C02197FE010E945F01C433D10750
S11300B0C9F70E94CB000C9465010C9400008BE0FE
S11300C0809385008CED8093840008951F920F9295
S11300D00FB60F9211242F933F934F935F936F9317
S11300E07F938F939F93AF93BF93EF93FF938091ED
S11300F00E01882351F0E1E8F0E08081887F80835D
S11301000E945F0010920E0106C081E080930E01F0
S113011083E080938100FF91EF91BF91AF919F9114
S11301208F917F916F915F914F913F912F910F909C
S11301300FBE0F901F9018951F920F920FB60F923B
S113014011242F933F934F935F936F937F938F93D8
S11301509F93AF93BF93EF93FF939BB180E1892764
S11301608BB9E1E8F0E08081887F80830E945F00A2
S113017010920E01FF91EF91BF91AF919F918F91DA
S11301807F916F915F914F913F912F910F900FBE8F
S11301900F901F901895E9E6F0E0808182608083DB
S11301A0E89A80E18AB90E945F001092800081E0A1
S11301B080936F007894FFCF0F931F9300E815E2AC
S11301C020E030E040E054E264EF70E08FE091E042
S11301D00E9414011F910F910895CF93C62F6A3086
S11301E019F46DE00E94ED00E0ECF0E0808185FF01
S11301F0FDCFC093C60080E0CF9108950F931F9365
S1130200CF93DF93EB016881662341F08C01219643
S1130210C8010E94ED0069916111FACF80E0DF917D
S1130220CF911F910F9108950F931F93CF93DF9355
S1130230EC01CB01BA01689413F8969587957795EC
S113024067951694D1F7A90198010E943D012150A8
S113025031093093C5002093C40088E18093C10024
S113026086E08093C20060E071E0CE010E94FE004F
S1130270DF91CF911F910F910895A1E21A2EAA1B2D
S1130280BB1BFD010DC0AA1FBB1FEE1FFF1FA21742
S1130290B307E407F50720F0A21BB30BE40BF50B3F
S11302A0661F771F881F991F1A9469F760957095C8
S11302B0809590959B01AC01BD01CF010895EE0F8F
S11102C0FF1F0590F491E02D0994F894FFCFF0
S11102CE496E697469616C697A65640A00009E
S9030000FC
