:100000000C9434000C9451000C9451000C94510049
:100010000C9451000C9451000C9451000C9451001C
:100020000C9451000C9451000C9451000C9451000C
:100030000C9451000C9482000C9451000C945100CB
:100040000C94A7000C9451000C9451000C94510096
:100050000C9451000C9451000C9451000C945100DC
:100060000C9451000C94510011241FBECFEFD8E026
:10007000DEBFCDBF11E0A0E0B1E0EEE6F4E002C0EB
:1000800005900D92A430B107D9F721E0A4E0B1E0CA
:1000900001C01D92A131B207E1F70E94F1000C945A
:1000A00035020C940000E1E8F0E0808182608083FA
:1000B000EFE6F0E0808181608083109285001092ED
:1000C000840078940895E0918400F0918500209157
:1000D0000401309105014091060150910701AEEFF6
:1000E000BFEF0E94E601DC01CB01B695A79597957D
:1000F0008795F695E795BC01CD016E0F7F1F811D99
:10010000911D08951F920F920FB60F9211248F9395
:100110009F93AF93BF938091040190910501A091AB
:100120000601B09107010196A11DB11D8093040144
:1001300090930501A0930601B0930701BF91AF9181
:100140009F918F910F900FBE0F901F9018951F9247
:100150000F920FB60F9211242F933F938F939F937B
:10016000AF93BF938091090190910A01A0910B0177
:10017000B0910C013091080123E0230F2D3720F4BA
:100180000196A11DB11D05C026E8230F0296A11DF1
:10019000B11D209308018093090190930A01A09357
:1001A0000B01B0930C0180910D0190910E01A09173
:1001B0000F01B09110010196A11DB11D80930D0199
:1001C00090930E01A0930F01B0931001BF91AF91D6
:1001D0009F918F913F912F910F900FBE0F901F9085
:1001E0001895CF92DF92EF92FF920F9300E028E0F4
:1001F00040E855E260E070E080EC90E00E94300161
:100200000E9453000E9463002FE780EE90E321508C
:1002100080409040E1F700C000000E9463006B0145
:100220007C016EEF7FEF80EC90E00E949F0160E028
:1002300071E080EC90E00E948A01B60180EC90E0D1
:100240000E949F0160E071E080EC90E00E948A01D2
:1002500080E090E00F91FF90EF90DF90CF900895B5
:100260000F93CF93DF93EC01DB01CA018C529140D5
:10027000A109B109853D904CA140B10508F040C0ED
:1002800025502430E8F580E2888388E18983220FB5
:100290002A83053421F48A8180628A8305C00F3461
:1002A00019F48A8180638A83DB01CA0180589B47E5
:1002B000A14EBF4F880F991FAA1FBB1F880F991F00
:1002C000AA1FBB1F880F991FAA1FBB1F440F551FD2
:1002D000661F771F440F551F661F771F9A01AB01DA
:1002E000220F331F441F551F220F331F441F551F5A
:1002F000BC01CD010E94C401215031093D832C83F2
:10030000DF91CF910F910895FC01908195FFFDCF72
:10031000668308950F931F93CF93DF93EB0168815A
:10032000662341F08C012196C8010E9484016991E5
:100330006111FACFDF91CF911F910F9108950F9323
:100340001F93CF93DF93CDB7DEB727970FB6F894FF
:10035000DEBF0FBECDBF8C01CB014AE0BE016F5F97
:100360007F4F0E940002BE016F5F7F4FC8010E9455
:100370008A0127960FB6F894DEBF0FBECDBFDF917E
:10038000CF911F910F910895A1E21A2EAA1BBB1BBA
:10039000FD010DC0AA1FBB1FEE1FFF1FA217B30751
:1003A000E407F50720F0A21BB30BE40BF50B661F67
:1003B000771F881F991F1A9469F76095709580952B
:1003C00090959B01AC01BD01CF0108950E94F10100
:1003D000A59F900DB49F900DA49F800D911D112499
:1003E0000895A29FB001B39FC001A39F700D811D0E
:1003F0001124911DB29F700D811D1124911D08952E
:10040000BB274A3031F4992322F4BDE290958195BF
:100410009F4F0C940C02BB27FB015527AA27880F7E
:10042000991FAA1FA41710F0A41B83955051B9F768
:10043000A05DAA3308F0A95DA193009779F7B111E7
:10044000B1931192CB010C942502DC01FC01672FC2
:1004500071917723E1F7329704C07C916D9370839B
:0E0460006291AE17BF07C8F30895F894FFCF5E
:04046E000A0D000073
:00000001FF
