:100000000C9473000C9490000C9490000C9490004D
:100010000C9490000C9490000C9490000C94900020
:100020000C9490000C9490000C9490000C94900010
:100030000C9490000C940F080C9490000C94900079
:100040000C9490000C9490000C9490000C949000F0
:100050000C9490000C9490000C9490000C949000E0
:100060000C9490000C9490000F023202540276021D
:1000700028039802BA02DD0200030A0228032803BB
:10008000280328032803280328032303036EDB36F1
:100090003D9A9999993DABAAAA2A3E000000803F5B
:1000A000072C7AA5BA6CC590DA3B9365FC8BBC53E0
:1000B000F810FD3C5692834DBD879D3AB63DCBC9A5
:1000C000BF5BBE73DA0FC93F05A84CCDB2D44EB9A1
:1000D0003836A9020C50B9918688083CA6AAAA2AEB
:1000E000BE000000803F11241FBECFEFD8E0DEBF6E
:1000F000CDBF11E0A0E0B1E0EEE1F1E202C0059079
:100100000D92AC31B107D9F721E0ACE1B1E001C00B
:100110001D92A032B207E1F70E9463080C948D1083
:100120000C9400000895FC0164857585868597858B
:100130000895FC0160897189828993890895FC0181
:10014000648975898689978908954F925F926F9225
:100150007F928F929F92AF92BF92CF92DF92EF9257
:10016000FF92CF93DF93CDB7DEB72A970FB6F894FF
:10017000DEBF0FBECDBF9A878987FC01808091804A
:10018000A280B380C480D580E680F780A501940169
:10019000C501B4010E947B0F2B013C01A701960110
:1001A000C701B6010E947B0F9B01AC01C301B201E4
:1001B0000E94F10C0E94F60F6B017C01E985FA8523
:1001C00040845184628473849B01AC010E947B0F44
:1001D00069837A838B839C83A3019201C301B2015B
:1001E0000E947B0F6D837E838F8398872D813E8154
:1001F0004F81588569817A818B819C810E94F10CA5
:100200000E94F60F69837A838B839C83A7019601F2
:10021000C501B4010E94820D0E945D0DE985FA8539
:10022000648775878687978720E030E040E05FE34A
:1002300069817A818B819C810E947B0F20E030E074
:1002400040EF52E40E94820D0E94DF0C9B01AC0142
:100250000E94F10C4B015C01E985FA85648B758B7A
:10026000868B978B20E030E0A901C301B2010E9488
:10027000760F18165CF529813A814B815C81C701A4
:10028000B6010E94820D0E945D0D6B017C01A501EB
:1002900094016BED7FE089E490E40E94F00C20E093
:1002A00030E040E05FE30E947B0FA70196010E94CF
:1002B000F10C2BED3FE049EC5FE30E94F00CE98587
:1002C000FA85608B718B828B938B36C029813A8142
:1002D0004B815C81C701B6010E94820D0E945D0DB9
:1002E0002B013C01A50194016BED7FE089E490E4D2
:1002F0000E94F00C20E030E040E05FE30E947B0FC2
:100300006B017C01A30192016BED7FE089E490E435
:100310000E94F00C9B01AC01C701B6010E94F10CD8
:100320002BED3FE049EC5FE30E94F00CE985FA8594
:10033000608B718B828B938BA5019401E985FA8583
:1003400060897189828993890E94F10CE985FA8517
:10035000648B758B868B978B2A960FB6F894DEBFCD
:100360000FBECDBFDF91CF91FF90EF90DF90CF9088
:10037000BF90AF909F908F907F906F905F904F90C5
:100380000895CF92DF92EF92FF920F931F93FC019B
:100390004083518362837383048315832683378369
:1003A000C086D186E286F3860E94A5001F910F9138
:1003B000FF90EF90DF90CF90089508956F927F9215
:1003C0008F929F92AF92BF92CF92DF92EF92FF9265
:1003D0000F931F93CF93DF93CDB7DEB760970FB620
:1003E000F894DEBF0FBECDBF3C0160E171E080EC50
:1003F00090E00E94CA0C80EC90E00E94BE0C90E05D
:10040000FC01F097E231F10508F022C1EC5CFF4FEE
:100410000C946D1080E090E0A0E8BFE31CC180EC7C
:100420008F931F921F921F9280E48F938F931F923E
:100430001F9289A09AA0ABA0BCA0CDA0DEA0EFA087
:10044000F8A409A51AA52BA53CA54DA55EA56FA5E9
:1004500078A9C3010E94700A0FB6F894DEBF0FBEE0
:10046000CDBF33C11F921F921F921F9280E48F93C2
:100470008F931F921F9289A09AA0ABA0BCA0CDA081
:10048000DEA0EFA0F8A409A51AA52BA53CA54DA5B3
:100490005EA56FA578A9C3010E94700A0FB6F894F3
:1004A000DEBF0FBECDBF11C180E48F931F921F929C
:1004B0001F928F938F931F921F9289A09AA0ABA037
:1004C000BCA0CDA0DEA0EFA0F8A409A51AA52BA57D
:1004D0003CA54DA55EA56FA578A9C3010E94700A31
:1004E0000FB6F894DEBF0FBECDBFEFC080EC8F9388
:1004F0001F921F921F921F921F921F921F9289A0FC
:100500009AA0ABA0BCA0CDA0DEA0EFA0F8A409A546
:100510001AA52BA53CA54DA55EA56FA578A9C3017D
:100520000E94700A0FB6F894DEBF0FBECDBFCDC0DB
:1005300080E48F931F921F921F921F921F921F920F
:100540001F9289A09AA0ABA0BCA0CDA0DEA0EFA076
:10055000F8A409A51AA52BA53CA54DA55EA56FA5D8
:1005600078A9C3010E94700A0FB6F894DEBF0FBECF
:10057000CDBFABC080EC8F931F921F921F928F93C1
:1005800080E48F931F921F9289A09AA0ABA0BCA079
:10059000CDA0DEA0EFA0F8A409A51AA52BA53CA527
:1005A0004DA55EA56FA578A9C3010E94700A0FB67C
:1005B000F894DEBF0FBECDBF88C01F921F921F925E
:1005C0001F9280EC8F9380E48F931F921F9289A0DB
:1005D0009AA0ABA0BCA0CDA0DEA0EFA0F8A409A576
:1005E0001AA52BA53CA54DA55EA56FA578A9C301AD
:1005F0000E94700A0FB6F894DEBF0FBECDBF65C073
:1006000080E48F931F921F921F9290EC9F938F9381
:100610001F921F9289A09AA0ABA0BCA0CDA0DEA083
:10062000EFA0F8A409A51AA52BA53CA54DA55EA58C
:100630006FA578A9C3010E94700A0FB6F894DEBFB7
:100640000FBECDBF42C080E090E0A0E8BFEB03C08A
:1006500080E090E0DC0119821A821B821C821D82DC
:100660001E821F82188689879A87AB87BC871D8662
:100670001E861F86188A8DB79EB740970FB6F894CE
:100680009EBF0FBE8DBFADB7BEB7119680E1FE0114
:10069000B19601900D928A95E1F789809A80AB809E
:1006A000BC80CD80DE80EF80F88409851A852B859B
:1006B0003C854D855E856F857889C3010E94F10B6D
:1006C0000FB6F894DEBF0FBECDBFC30160960FB664
:1006D000F894DEBF0FBECDBFDF91CF911F910F9178
:1006E000FF90EF90DF90CF90BF90AF909F908F9052
:1006F0007F906F90089521E0FC01208308958F92F0
:100700009F92AF92BF92CF92DF92EF92FF920F93A0
:100710001F93CF93DF93CDB7DEB760970FB6F894F2
:10072000DEBF0FBECDBFFC0189829A82AB82BC8244
:10073000CD82DE82EF82F88609871A872B873C8775
:100740004D875E876F87788B89819A81AB81BC8169
:1007500085839683A783B0878D819E81AF81B8857D
:1007600081879287A387B48789859A85AB85BC8565
:1007700085879687A787B08B8D859E85AF85B8893D
:10078000818B928BA38BB48B158A168A178A108E55
:10079000118E128E138E148E158E168E178E10A239
:1007A00011A212A213A214A260960FB6F894DEBF93
:1007B0000FBECDBFDF91CF911F910F91FF90EF90B2
:1007C000DF90CF90BF90AF909F908F9008954F9201
:1007D0005F926F927F928F929F92AF92BF92CF92D1
:1007E000DF92EF92FF920F931F93CF93DF93CDB7DA
:1007F000DEB760970FB6F894DEBF0FBECDBFFC2DFD
:10080000E82D842E442E552E662E772E49825A824C
:100810006B827C82C02E402F512F622F732F4D830D
:100820005E836F8378870F2F4F2F5D2D6E2D7F2D69
:1008300049875A876B877C874E2F4E2E592C6A2CFE
:100840007B2C4D865E866F86788A9A80AB80BC80D2
:10085000DE80EF80F8841A852B853C855E856F8568
:1008600078890E947F0360960FB6F894DEBF0FBEB2
:10087000CDBFDF91CF911F910F91FF90EF90DF904F
:10088000CF90BF90AF909F908F907F906F905F9030
:100890004F9008952F923F924F925F926F927F9266
:1008A0008F929F92AF92BF92CF92DF92EF92FF9280
:1008B0000F931F93CF93DF93CDB7DEB7E4970FB6B7
:1008C000F894DEBF0FBECDBF1C0189829A82AB8235
:1008D000BC82CD82DE82EF82F88609871A872B8759
:1008E0003C874D875E876F87788B89819A81AB8142
:1008F000BC8189A39AA3ABA3BCA34D805E806F800B
:10090000788489849A84AB84BC84CD84DE84EF842B
:10091000F8889C01AD012D966CAD7DAD8EAD9FAD7F
:100920002D970E94F00C6D8B7E8B8F8B988FA3017F
:10093000920161966CAD7DAD8EAD9FAD61970E94C9
:10094000F00C698F7A8F8B8F9C8FA501940165962F
:100950006CAD7DAD8EAD9FAD65970E94F00C6D8F37
:100960007E8F8F8F98A3A701960169966CAD7DADA0
:100970008EAD9FAD69970E94F00C6DA77EA78FA7E3
:1009800098AB2D893E894F89588DCA01B9010E94C3
:100990007B0F698B7A8B8B8B9C8B298D3A8D4B8D42
:1009A0005C8DCA01B9010E947B0F6DA37EA38FA34A
:1009B00098A79B01AC0169897A898B899C890E94DF
:1009C000F10C69AB7AAB8BAB9CAB2D8D3E8D4F8D13
:1009D00058A1CA01B9010E947B0F69A77AA78BA70A
:1009E0009CA72DA13EA14FA158A569897A898B8921
:1009F0009C890E94F10C698B7A8B8B8B9C8B29A52F
:100A00003AA54BA55CA569897A898B899C890E9446
:100A1000F10C0E94F60F698B7A8B8B8B9C8B20E0FC
:100A200030E040E85FE36D966CAD7DAD8EAD9FAD7F
:100A30006D970E94780D882364F06D968CAD9DAD06
:100A4000AEADBFAD6D97F10185AB96ABA7ABB0AFC7
:100A500013C069897A898B899C890E94F60F20E0EE
:100A600030E040E251E40E947B0FD101D5966D93B6
:100A70007D938D939C93D89720E030E040E85FE32E
:100A8000F10165A976A987A990AD0E94780D882308
:100A90004CF480E090E0A0EAB0E4F10185AB96ABC5
:100AA000A7ABB0AF29893A894B895C89D101D5962A
:100AB0006D917D918D919C91D8970E94820DF1014D
:100AC00061AF72AF83AF94AF89A19AA1ABA1BCA172
:100AD00085839683A783B087418652866386748612
:100AE00085869686A786B08AC18AD28AE38AF48AE6
:100AF0008D899E89AF89B88D858B968BA78BB08F9A
:100B0000898D9A8DAB8DBC8D818F928FA38FB48F81
:100B10008D8D9E8DAF8DB8A1858F968FA78FB0A339
:100B20008DA59EA5AFA5B8A981A392A3A3A3B4A3A5
:100B300010820E944408D10111966D937D938D938C
:100B40009C931497E4960FB6F894DEBF0FBECDBF0A
:100B5000DF91CF911F910F91FF90EF90DF90CF9099
:100B6000BF90AF909F908F907F906F905F904F90CD
:100B70003F902F9008956F927F928F929F92AF92A5
:100B8000BF92CF92DF92EF92FF920F931F93CF937A
:100B9000DF93CDB7DEB7A0970FB6F894DEBF0FBED8
:100BA000CDBF3C01898A9A8AAB8ABC8ACD8ADE8A0B
:100BB000EF8AF88E098F1A8F2B8F3C8F4D8F5E8FA7
:100BC0006F8F78A319A90AA9FBA8ECA8FC012589B5
:100BD00036894789508D65817681878190850E940D
:100BE000F10C69837A838B839C83F301218D328D91
:100BF000438D548D61857285838594850E94F10CA7
:100C00006D837E838F839887F301258D368D478D85
:100C100050A165857685878590890E94F10C69874A
:100C20007A878B879C87F30121A132A143A154A12C
:100C300061897289838994890E94F10C6D877E870E
:100C40008F87988BEF92FF920F931F938DB79EB76C
:100C500040970FB6F8949EBF0FBE8DBFADB7BEB71D
:100C6000119680E1FE01719601900D928A95E1F74F
:100C700089809A80AB80BC80CD80DE80EF80F88454
:100C800009851A852B853C854D855E856F8578891C
:100C9000C3010E944A040FB6F894DEBF0FBECDBF59
:100CA000A0960FB6F894DEBF0FBECDBFDF91CF91F7
:100CB0001F910F91FF90EF90DF90CF90BF90AF907A
:100CC0009F908F907F906F900895CF92DF92EF92D8
:100CD000FF92CF93DF93FC012081211175C0EC01BD
:100CE0000E944408C980DA80EB80FC806C197D0981
:100CF0008E099F090E942A0E20E034E244E759E45D
:100D00000E94820D29AD3AAD4BAD5CAD0E947B0FC8
:100D10006B017C0120E030E040E85FE30E94760F49
:100D2000882354F081E088830F2EC12CD12CF0E869
:100D3000EF2EFFE3FF2EF02D2D893E894F89588D30
:100D4000C701B6010E947B0F2D813E814F815885DE
:100D50000E94F10C6DA37EA38FA398A7298D3A8DD5
:100D60004B8D5C8DC701B6010E947B0F29853A85AA
:100D70004B855C850E94F10C69A77AA78BA79CA77D
:100D80002D8D3E8D4F8D58A1C701B6010E947B0F5E
:100D90002D853E854F8558890E94F10C6DA77EA751
:100DA0008FA798AB29A13AA14BA15CA1C701B601BD
:100DB0000E947B0F29893A894B895C890E94F10C3A
:100DC00069AB7AAB8BAB9CABDF91CF91FF90EF908F
:100DD000DF90CF900895FC0181E09081911101C0D6
:100DE00080E00895FC0165A176A187A190A50895F2
:100DF000FC0161A572A583A594A50895FC0165A5D4
:100E000076A587A590A90895DC011196ED91FC9136
:100E10001297408121E030E0C90113960C9002C086
:100E2000880F991F0A94E2F7842B80830895DC01D0
:100E30001196ED91FC911297408121E030E0B901CB
:100E400013960C9002C0660F771F0A94E2F7CB014D
:100E500080958423808308950F93CF93DF93EC01D3
:100E600001110DC0FB01308181E090E0022E02C033
:100E7000880F991F0A94E2F7832B80830DC0FB0132
:100E8000308181E090E0022E02C0880F991F0A9401
:100E9000E2F78095832380835A8349832B83CE0195
:100EA0000E9417071882DF91CF910F910895FC01DE
:100EB00075836483578346830895CF93DF93EC0152
:100EC000CB01BA01288539854A855B850E947B0F55
:100ED0000E94F40D7B836A8379836883DF91CF91CD
:100EE0000895CF93DF93EC01CB01BA0128853985B2
:100EF0004A855B850E947B0F0E94F40D798368838D
:100F0000DF91CF910895CF93DF93EC012881398150
:100F10008A819B812817390744F0288139818A8189
:100F20009B818217930744F14DC08E819F810E945F
:100F300004078AE18A95F1F700C08C819D810E94A7
:100F4000040787EE93E00197F1F700C000008C8161
:100F50009D810E94170787EE93E00197F1F700C08B
:100F600000008A819B8101979B838A832881398134
:100F700028173907D4F2D1CF8E819F810E9417079D
:100F80009AE19A95F1F700C08C819D810E94040737
:100F90008FEC97E00197F1F700C000008C819D81F4
:100FA0000E9417078FEC97E00197F1F700C000004F
:100FB0008A819B8101969B838A832881398182174C
:100FC0009307D4F2DF91CF910895CF92DF92EF9201
:100FD000FF92CF93DF93EC016A017B01B901330FDC
:100FE000880B990B0E942C0EA70196010E947B0F83
:100FF00020E030E040E05FE30E947B0F2BED3FE01C
:1010000049E450E40E94820D688779878A879B872C
:10101000DF91CF91FF90EF90DF90CF9008951F92D6
:101020000F920FB60F9211248F939F93AF93BF939C
:1010300080911C0190911D01A0911E01B0911F0192
:101040000196A11DB11D80931C0190931D01A093D9
:101050001E01B0931F01BF91AF919F918F910F908F
:101060000FBE0F901F901895E1E8F0E0808182603C
:101070008083EFE6F0E080818160808310928500BC
:101080001092840078940895E0918400F091850096
:1010900020911C0130911D0140911E0150911F01B2
:1010A000AEEFBFEF0E947310DC01CB01B695A795A0
:1010B00097958795F695E795BC01CD016E0F7F1F3B
:1010C000811D911D0895CF93DF93CDB7DEB7CD5C21
:1010D000D1090FB6F894DEBF0FBECDBF00E022E00D
:1010E0004BE250E06AE270E0CE0101960E942C07CC
:1010F00023E04BE250E06AE270E0CE0105960E94E8
:101100002C0724E04BE250E06AE270E0CE01099641
:101110000E942C0725E04BE250E06AE270E0CE012D
:101120000D960E942C0726E04BE250E06AE270E048
:10113000CE0141960E942C0727E04BE250E06AE284
:1011400070E0CE0145960E942C07AE01435F5F4FD1
:10115000BE016F5F7F4FCE0149960E945707AE01D7
:101160004F5E5F4FBE016B5F7F4FCE018E960E9438
:101170005707AE014B5E5F4FBE01675F7F4FCE01E9
:101180008D5B9F4F0E945707CE01885A9F4F0E9448
:101190009200CE0180599F4F0E947B03CE01835560
:1011A0009F4F0E94DD0120E436E049E35EE863E6FC
:1011B00070E4CE018D5B9F4F0E94E50720E436E08E
:1011C00049E35EE863E670E4CE018E960E94E5078F
:1011D00020E436E049E35EE863E670E4CE01499638
:1011E0000E94E5074BED5FE069EC7FE3CE018D5B8C
:1011F0009F4F0E945D0740E050E0BA01CE018E96FD
:101200000E945D0740E050E0BA01CE0149960E947D
:101210005D070E94340828E040E855E260E070E095
:1012200080EC90E00E946A0C80E1E0E0F1E0DE01F9
:10123000A255BF4F01900D928A95E1F7812C912C18
:1012400054010F2EC12CD12CF0EFEF2EF2E4FF2E23
:10125000F02D97018601B501A401CE0180599F4F61
:101260000E94E70381E48F9380E28F931F921F9285
:10127000C255DF4F8880CE5AD040C155DF4F98808D
:10128000CF5AD040C055DF4FA880C05BD040CF546C
:10129000DF4FB880C15BD040CE54DF4FC880C25B07
:1012A000D040CD54DF4FD880C35BD040CC54DF4F0B
:1012B000E880C45BD040CB54DF4FF880C55BD040A2
:1012C000CA54DF4F0881C65BD040C954DF4F188134
:1012D000C75BD040C854DF4F2881C85BD040C7549B
:1012E000DF4F3881C95BD040C654DF4F4881CA5BAD
:1012F000D040C554DF4F5881CB5BD040C454DF4F42
:101300006881CC5BD040C354DF4F7881CD5BD04047
:10131000CE0180599F4F0E94BB050F900F900F90F8
:101320000F90CE0180599F4F0E946506CE018059D3
:101330009F4F0E94FE066B017C01CE0180599F4F9A
:101340000E94F8064B015C01CE0180599F4F0E941C
:10135000F206AB01BC0195018401CE01885A9F4F72
:101360000E94C101CE01885A9F4F0E949300AB0199
:10137000BC01CE0149960E947107CE01885A9F4F49
:101380000E949900AB01BC01CE018E960E947107AC
:10139000CE01885A9F4F0E949F00AB01BC01CE0135
:1013A0008D5B9F4F0E947107CE0149960E94830773
:1013B000CE018E960E948307CE018D5B9F4F0E94C7
:1013C0008307CE0180599F4F0E94EB06882309F4C2
:1013D000A8CF8DB79EB740970FB6F8949EBF0FBEAB
:1013E0008DBFADB7BEB7119680E1FE01E255FF4F4C
:1013F00001900D928A95E1F7BE0163557F4FCE01B2
:1014000082549F4F0E94DE0180E1FE01E254FF4FB3
:10141000DE01A255BF4F01900D928A95E1F781E45C
:101420008F9380EA8F931F921F92C255DF4F88805F
:10143000CE5AD040C155DF4F9880CF5AD040C055CA
:10144000DF4FA880C05BD040CF54DF4FB880C15B76
:10145000D040CE54DF4FC880C25BD040CD54DF4F68
:10146000D880C35BD040CC54DF4FE880C45BD04011
:10147000CB54DF4FF880C55BD040CA54DF4F0881A2
:10148000C65BD040C954DF4F1881C75BD040C854F9
:10149000DF4F2881C85BD040C754DF4F3881C95B1C
:1014A000D040C654DF4F4881CA5BD040C554DF4F9F
:1014B0005881CB5BD040C454DF4F6881CC5BD040B7
:1014C000C354DF4F7881CD5BD040CE0180599F4F10
:1014D0000E94BB050FB6F894DEBF0FBECDBF21CF73
:1014E0002F923F924F925F926F927F928F929F9234
:1014F000AF92BF92CF92DF92EF92FF920F931F9322
:10150000CF93DF93CDB7DEB768970FB6F894DEBF01
:101510000FBECDBF1C0189829A82AB82BC82CD8274
:10152000DE82EF82F88609871A872B873C874D87F2
:101530005E876F87788BC980DA80EB80FC808D8036
:101540009E80AF80B884A5019401C501B4010E94BA
:101550007B0F2B013C01A7019601C701B6010E9438
:101560007B0F698B7A8B8B8B9C8B29893A894B8972
:101570005C89C301B2010E94F10C0E94F60F698BD5
:101580007A8B8B8B9C8B9B01AC01C501B4010E94B3
:10159000820D6D8B7E8B8F8B988F20E030E0A901C0
:1015A000C701B6010E94760F1816DCF420E030E087
:1015B000A901C501B4010E94760F18164CF020E075
:1015C00030E0A901C501B4010E94780D88236CF4B4
:1015D0006D897E898F89988D0E94DF0C2B013C01DB
:1015E00007C0412C512C320103C0412C512C320137
:1015F00020E030E0A901C701B6010E94780D8823E0
:1016000014F520E030E0A901C501B4010E94780D75
:1016100088234CF020E030E0A901C501B4010E940C
:10162000760F181684F46D897E898F89988D0E94B3
:10163000DF0C9B01AC016BED7FE089EC90E40E9434
:10164000F00C2B013C0120E030E0A901C701B601FC
:101650000E94780D81110DC020E030E0A901C50184
:10166000B4010E94760F1816ECF5412C512C320172
:1016700039C020E030E0A901C701B6010E94760F11
:1016800018169CF420E030E0A901C501B4010E94C5
:10169000780D81113CC00F2EFBED4F2EFFE05F2E29
:1016A000F9EC6F2EFFE37F2EF02D20E030E0A90152
:1016B000C701B6010E94780D88234CF520E030E088
:1016C000A901C501B4010E94780D811120C00F2E1F
:1016D000F4EE4F2EFBEC5F2EF6E96F2EF0E47F2E3A
:1016E000F02D15C020E030E0A901C501B4010E9431
:1016F000780D88230CF0BDCF0F2EFBED4F2EFFE0B1
:101700005F2EF9E46F2EF0E47F2EF02DB2CF20E0B3
:1017100030E044E353E46DA57EA58FA598A90E940F
:10172000820D2BED3FE049E450E40E947B0FA301C2
:1017300092010E94F10C6B017C010E94E80F4B01A9
:101740005C0129A93AA94BA95CA969897A898B8985
:101750009C890E94F10C2B013C019B01AC01C5014D
:10176000B4010E947B0FF1016083718382839383B4
:10177000C701B6010E947D0D9B01AC01C301B201FE
:101780000E947B0FF101648375838683978389852B
:101790009A85AB85BC8580879187A287B3878D8525
:1017A0009E85AF85B88984879587A687B787C1014D
:1017B00068960FB6F894DEBF0FBECDBFDF91CF9114
:1017C0001F910F91FF90EF90DF90CF90BF90AF905F
:1017D0009F908F907F906F905F904F903F902F9051
:1017E00008956F927F928F929F92AF92BF92CF9205
:1017F000DF92EF92FF920F931F93CF93DF93CDB7BA
:10180000DEB760970FB6F894DEBF0FBECDBF3C01C8
:1018100089829A82AB82BC82CD82DE82EF82F88698
:1018200009871A872B873C874D875E876F87788B60
:101830002DA53EA54FA558A96D857E858F859889D4
:101840000E94F10CF301648775878687978729A129
:101850003AA14BA15CA169817A818B819C810E9414
:10186000F10CF30160837183828393832DA13EA1E8
:101870004FA158A56D817E818F8198850E94F10CC2
:10188000F301648375838683978329A53AA54BA5C5
:101890005CA569857A858B859C850E94F10CF30196
:1018A0006087718782879387C30160960FB6F8942B
:1018B000DEBF0FBECDBFDF91CF911F910F91FF9083
:1018C000EF90DF90CF90BF90AF909F908F907F90E0
:1018D0006F9008950F93CF93DF93EC01DB01CA0162
:1018E0008C529140A109B109853D904CA140B105B0
:1018F00008F040C025502430E8F580E2888388E174
:101900008983220F2A83053421F48A8180628A83A5
:1019100005C00F3419F48A8180638A83DB01CA0110
:1019200080589B47A14EBF4F880F991FAA1FBB1F0E
:10193000880F991FAA1FBB1F880F991FAA1FBB1FC3
:10194000440F551F661F771F440F551F661F771FD3
:101950009A01AB01220F331F441F551F220F331F63
:10196000441F551FBC01CD010E944B10215031096D
:101970003D832C83DF91CF910F910895FC019081DD
:101980009923ECF786810895FC01908195FFFDCFA6
:10199000668308950F931F93CF93DF93EB016881C4
:1019A000662341F08C012196C8010E94C40C699104
:1019B0006111FACFDF91CF911F910F9108959F93FD
:1019C0009F770E94670E0F90002042F49058A2EA81
:1019D0002AED3FE049E450E40E94080D0C94280FE2
:1019E0005058BB27AA270E94080D0C94280F0E946C
:1019F000EF0E38F00E94F60E20F039F49F3F19F4F4
:101A000026F40C94B10E0EF4E095E7FB0C94AB0EAB
:101A1000E92F0E944D0F58F3BA1762077307840726
:101A2000950720F079F4A6F50C946F0F0EF4E0956D
:101A30000B2EBA2FA02D0B01B90190010C01CA0188
:101A4000A0011124FF27591B99F0593F50F4503E33
:101A500068F11A16F040A22F232F342F4427585F25
:101A6000F3CF469537952795A795F0405395C9F73D
:101A70007EF41F16BA0B620B730B840BBAF09150F5
:101A8000A1F0FF0FBB1F661F771F881FC2F70EC094
:101A9000BA0F621F731F841F48F487957795679567
:101AA000B795F7959E3F08F0B0CF9395880F08F053
:101AB0009927EE0F9795879508959F939F77EEE36B
:101AC00089379E0728F4ECE8F0E00E94DB0E0CC09A
:101AD0000E94670E9058A2EA2AED3FE049EC5FE3CE
:101AE0000E94080D0E94280F0F9007FC905808953F
:101AF0000E94870E08F481E008950E94FF0EE3958E
:101B00000C94390F0E94960D0C94280F0E94F60E2B
:101B100058F00E94EF0E40F029F45F3F29F00C943A
:101B2000AB0E51110C94700F0C94B10E0E944D0F1E
:101B300068F39923B1F3552391F3951B550BBB27FC
:101B4000AA2762177307840738F09F5F5F4F220F41
:101B5000331F441FAA1FA9F335D00E2E3AF0E0E838
:101B600032D091505040E695001CCAF72BD0FE2F82
:101B700029D0660F771F881FBB1F26173707480716
:101B8000AB07B0E809F0BB0B802DBF01FF279358CE
:101B90005F4F3AF09E3F510578F00C94AB0E0C94D9
:101BA000700F5F3FE4F3983ED4F386957795679581
:101BB000B795F7959F5FC9F7880F911D9695879503
:101BC00097F90895E1E0660F771F881FBB1F621722
:101BD00073078407BA0720F0621B730B840BBA0BE0
:101BE000EE1F88F7E09508950E94FB0D6894B111EF
:101BF0000C94700F08950E94550F88F09F5798F02D
:101C0000B92F9927B751B0F0E1F0660F771F881F01
:101C1000991F1AF0BA95C9F714C0B13091F00E941B
:101C20006F0FB1E008950C946F0F672F782F8827FE
:101C3000B85F39F0B93FCCF3869577956795B39542
:101C4000D9F73EF490958095709561957F4F8F4FB1
:101C50009F4F0895E89409C097FB3EF490958095B6
:101C6000709561957F4F8F4F9F4F9923A9F0F92F62
:101C700096E9BB279395F695879577956795B795E0
:101C8000F111F8CFFAF4BB0F11F460FF1BC06F5FC6
:101C90007F4F8F4F9F4F16C0882311F096E911C0D8
:101CA000772321F09EE8872F762F05C0662371F0F9
:101CB00096E8862F70E060E02AF09A95660F771F0D
:101CC000881FDAF7880F9695879597F90895DF931F
:101CD000CF931F930F938B01EC01E0EAF0E00E9499
:101CE000B40E0E94280F9801AE018B01EC0160E058
:101CF00070E080E89FE30E94F00C0E94F60F9801CC
:101D0000AE010F911F91CF91DF910C948E0F990F1F
:101D10000008550FAA0BE0E8FEEF16161706E807B5
:101D2000F907C0F012161306E407F50798F0621BD6
:101D3000730B840B950B39F40A2661F0232B242BAB
:101D4000252B21F408950A2609F4A140A6958FEFCA
:101D5000811D811D089597F99F6780E870E060E01C
:101D600008959FEF80EC0895DF93CF931F930F9317
:101D7000FF92EF92DF927B018C01689406C0DA2E0D
:101D8000EF010E948E0FFE01E894A59125913591F7
:101D900045915591A6F3EF010E94080DFE019701B0
:101DA000A801DA9469F7DF90EF90FF900F911F91EF
:101DB000CF91DF9108959F938F937F936F93FF93BC
:101DC000EF939B01AC010E947B0FEF91FF910E946A
:101DD000B40E2F913F914F915F910C947B0F002493
:101DE0000A941616170618060906089500240A9480
:101DF000121613061406050608950C94B10E0E94DF
:101E0000550FD8F3E894E0E0BB279F57F0F02AED98
:101E10003FE049EC06C0EE0FBB0F661F771F881F1F
:101E200028F0B23A62077307840728F0B25A620BAF
:101E3000730B840BE3959A9572F7803830F49A957A
:101E4000BB0F661F771F881FD2F790480C9438107D
:101E5000092E0394000C11F4882352F0BB0F40F4B8
:101E6000BF2B11F460FF04C06F5F7F4F8F4F9F4FF8
:101E70000895EF93E0FF07C0A2EA2AED3FE049ECA6
:101E80005FEB0E94080D0E94280F0F90039401FC45
:101E90009058E8ECF0E00C94DB0E57FD9058440F9E
:101EA000551F59F05F3F71F04795880F97FB991FB9
:101EB00061F09F3F79F08795089512161306140676
:101EC000551FF2CF4695F1DF08C016161706180603
:101ED000991FF1CF86957105610508940895E894DE
:101EE000BB2766277727CB0197F908950E94870EB5
:101EF00008F48FEF08950E948E0F0C94280F0E9413
:101F0000EF0E38F00E94F60E20F0952311F00C949D
:101F1000AB0E0C94B10E11240C94700F0E944D0F57
:101F200070F3959FC1F3950F50E0551F629FF0012C
:101F3000729FBB27F00DB11D639FAA27F00DB11D45
:101F4000AA1F649F6627B00DA11D661F829F2227CE
:101F5000B00DA11D621F739FB00DA11D621F839F55
:101F6000A00D611D221F749F3327A00D611D231F2B
:101F7000849F600D211D822F762F6A2F11249F5779
:101F800050409AF0F1F088234AF0EE0FFF1FBB1F7C
:101F9000661F771F881F91505040A9F79E3F51053B
:101FA00080F00C94AB0E0C94700F5F3FE4F3983EFE
:101FB000D4F3869577956795B795F795E7959F5FE5
:101FC000C1F7FE2B880F911D9695879597F9089577
:101FD0009F930E94FF0E0F9007FCEE5F0C94390F49
:101FE00019F416F40C94B10E0C9436100E94550F8F
:101FF000B8F39923C9F3B6F39F57550B87FF0E9497
:1020000044100024A0E640EA900180585695979528
:1020100028F4805C660F771F881F20F0261737078B
:10202000480730F4621B730B840B202931294A2B9B
:10203000A69517940794202531254A2758F7660F4F
:10204000771F881F20F026173707480730F4620BE8
:10205000730B840B200D311D411DA09581F7B90133
:10206000842F9158880F9695879508959F3F31F05A
:10207000915020F4879577956795B795880F911DB6
:102080009695879597F9089591505040660F771F60
:10209000881FD2F70895A1E21A2EAA1BBB1BFD01CF
:1020A0000DC0AA1FBB1FEE1FFF1FA217B307E40737
:1020B000F50720F0A21BB30BE40BF50B661F771F8F
:1020C000881F991F1A9469F760957095809590956F
:1020D0009B01AC01BD01CF010895EE0FFF1F0590DC
:1020E000F491E02D09940E947E10A59F900DB49F5D
:1020F000900DA49F800D911D11240895A29FB00101
:10210000B39FC001A39F700D811D1124911DB29F2B
:0E211000700D811D1124911D0895F894FFCFCC
:10211E00000000000000F0420000F042000000004D
:0C212E0052656164446174610A0D000098
:00000001FF
