S0100000526F626F7461726D2E73726563CE
S11300000C9462000C948A000C948A000C948A006C
S11300100C948A000C948A000C948A000C948A0034
S11300200C948A000C948A000C948A000C948A0024
S11300300C948A000C9495070C948A000C948A0002
S11300400C948A000C948A000C948A000C948A0004
S11300500C948A000C948A000C948A000C948A00F4
S11300600C948A000C948A00036EDB363D9A9999AD
S1130070993DABAAAA2A3E000000803F072C7AA52E
S1130080BA6CC590DA3B9365FC8BBC53F810FD3C0D
S11300905692834DBD879D3AB63DCBC9BF5BBE73B7
S11300A0DA0FC93F05A84CCDB2D44EB93836A902EF
S11300B00C50B9918688083CA6AAAA2ABE00000062
S11300C0803FBB0711241FBECFEFD8E0DEBFCDBFFA
S11300D011E0A0E0B1E0EEE1F1E202C005900D9282
S11300E0AA34B107D9F721E0AAE4B1E001C01D9216
S11300F0AE34B207E1F710E0C2E6D0E004C02197C5
S1130100FE010E94680DC136D107C9F70E94C007DD
S11301100C948D100C9400000895FC016485758581
S1130120868597850895FC01608971898289938900
S11301300895FC01648975898689978908954F9289
S11301405F926F927F928F929F92AF92BF92CF9263
S1130150DF92EF92FF92CF93DF93CDB7DEB72A976A
S11301600FB6F894DEBF0FBECDBF9A878987FC0116
S113017080809180A280B380C480D580E680F7809F
S1130180A5019401C501B4010E947E0C2B013C0120
S1130190A7019601C701B6010E947E0C9B01AC0128
S11301A0C301B2010E94F4090E94F10C6B017C01AD
S11301B0E985FA8540845184628473849B01AC018F
S11301C00E947E0C69837A838B839C83A3019201B2
S11301D0C301B2010E947E0C6D837E838F83988756
S11301E02D813E814F81588569817A818B819C81E3
S11301F00E94F4090E94F10C69837A838B839C83A7
S1130200A7019601C501B4010E94850A0E94600AF3
S1130210E985FA85648775878687978720E030E0CB
S113022040E05FE369817A818B819C810E947E0C2E
S113023020E030E040EF52E40E94850A0E94E20987
S11302409B01AC010E94F4094B015C01E985FA852C
S1130250648B758B868B978B20E030E0A901C301FA
S1130260B2010E94790C18165CF529813A814B8100
S11302705C81C701B6010E94850A0E94600A6B0175
S11302807C01A50194016BED7FE089E490E40E9478
S1130290F30920E030E040E05FE30E947E0CA70118
S11302A096010E94F4092BED3FE049EC5FE30E94C4
S11302B0F309E985FA85608B718B828B938B36C049
S11302C029813A814B815C81C701B6010E94850A6C
S11302D00E94600A2B013C01A50194016BED7FE0B3
S11302E089E490E40E94F30920E030E040E05FE319
S11302F00E947E0C6B017C01A30192016BED7FE0F7
S113030089E490E40E94F3099B01AC01C701B601A2
S11303100E94F4092BED3FE049EC5FE30E94F309EE
S1130320E985FA85608B718B828B938BA50194018F
S1130330E985FA8560897189828993890E94F40923
S1130340E985FA85648B758B868B978B2A960FB615
S1130350F894DEBF0FBECDBFDF91CF91FF90EF9039
S1130360DF90CF90BF90AF909F908F907F906F90D1
S11303705F904F900895CF92DF92EF92FF920F9388
S11303801F93FC0140835183628373830483158329
S113039026833783C086D186E286F3860E949F0037
S11303A01F910F91FF90EF90DF90CF9008950F93DE
S11303B01F93CF93DF9300D000D0CDB7DEB78C016D
S11303C005960E945807CE0101960E94580789811C
S11303D09A81AB81BC81F80185839683A783B0871A
S11303E00F900F900F900F90DF91CF911F910F916D
S11303F008952F923F924F925F926F927F928F92C5
S11304009F92AF92BF92CF92DF92EF92FF920F939F
S11304101F93CF93DF93CDB7DEB7E8970FB6F89469
S1130420DEBF0FBECDBF1C0189829A82AB82BC8223
S1130430CD82DE82EF82F88609871A872B873C8774
S11304404D875E876F87788B89819A81AB81BC8168
S11304508DA39EA3AFA3B8A78D819E81AF81B885DC
S113046089A79AA7ABA7BCA789859A85AB85BC85C4
S11304708DA79EA7AFA7B8AB8D849E84AF84B888A0
S11304802DA13EA14FA158A561966CAD7DAD8EAD59
S11304909FAD61970E94F309698B7A8B8B8B9C8B40
S11304A029A53AA54BA55CA565966CAD7DAD8EAD31
S11304B09FAD65970E94F3096D8B7E8B8F8B988F10
S11304C02DA53EA54FA558A969966CAD7DAD8EAD01
S11304D09FAD69970E94F309698F7A8F8B8F9C8FE8
S11304E0A50194016D966CAD7DAD8EAD9FAD6D97FC
S11304F00E94F3092B013C01DC01CB01BF7789A3E6
S11305009AA3ABA3BCA329893A894B895C89CA0104
S1130510B9010E947E0C6D8F7E8F8F8F98A32D89D9
S11305203E894F89588DCA01B9010E947E0C69AB7E
S11305307AAB8BAB9CAB9B01AC016D8D7E8D8F8DAB
S113054098A10E94F4096DAB7EAB8FAB98AF298D57
S11305503A8D4B8D5C8DCA01B9010E947E0C6B01F2
S11305607C0129A93AA94BA95CA96D8D7E8D8F8D3B
S113057098A10E94F4096D8F7E8F8F8F98A3A70195
S113058096016D8D7E8D8F8D98A10E94F4090E9435
S1130590F10CC62ED72EE82EF92E262F372F482FF2
S11305A0592F69A17AA18BA19CA10E94790C1816DC
S11305B024F4C9A0DAA0EBA0FCA020E030E040EADB
S11305C050E4A1966CAD7DAD8EAD9FADA1970E9418
S11305D07B0A882364F0A1968CAD9DADAEADBFAD12
S11305E0A197F10181AF92AFA3AFB4AF13C06C2D4B
S11305F07D2D8E2D9F2D0E94F10C20E030E040E2F5
S113060051E40E947E0CD101D9966D937D938D9314
S11306109C93DC9720E030E040EA50E4F10161ADC6
S113062072AD83AD94AD0E947B0A88234CF480E0C4
S113063090E0A0EAB0E4F10181AF92AFA3AFB4AF10
S11306408101035C1F4F2C2D3D2D4E2D5F2DD101BB
S1130650D9966D917D918D919C91DC970E94850A2C
S1130660F80160837183828393838DA19EA1AFA1DE
S1130670B8A5F10181879287A387B48789A59AA534
S1130680ABA5BCA585879687A787B08B8DA59EA5AE
S1130690AFA5B8A9818B928BA38BB48B858A968ADC
S11306A0A78AB08E89899A89AB89BC89818F928FF8
S11306B0A38FB48F8D899E89AF89B88D858F968FCE
S11306C0A78FB0A3898D9A8DAB8DBC8D81A392A386
S11306D0A3A3B4A345A256A267A270A61082C10127
S11306E005960E947707F101618372838383948363
S11306F0E8960FB6F894DEBF0FBECDBFDF91CF9161
S11307001F910F91FF90EF90DF90CF90BF90AF902B
S11307109F908F907F906F905F904F903F902F901D
S113072008956F927F928F929F92AF92BF92CF92D1
S1130730DF92EF92FF920F931F93CF93DF93CDB786
S1130740DEB7A0970FB6F894DEBF0FBECDBF3C0155
S1130750898A9A8AAB8ABC8ACD8ADE8AEF8AF88E25
S1130760098F1A8F2B8F3C8F4D8F5E8F6F8F78A3DD
S113077019A90AA9FBA8ECA8FC01218D328D438D8F
S1130780548D61857285838594850E94F4096983FB
S11307907A838B839C83F301258D368D478D50A1FD
S11307A065857685878590890E94F4096D837E83AB
S11307B08F839887F30121A132A143A154A16189B8
S11307C07289838994890E94F40969877A878B875F
S11307D09C87F30125A136A147A150A56589768997
S11307E08789908D0E94F4096D877E878F87988B07
S11307F0EF92FF920F931F938DB79EB740970FB65A
S1130800F8949EBF0FBE8DBFADB7BEB7119680E101
S1130810FE01719601900D928A95E1F789809A8084
S1130820AB80BC80CD80DE80EF80F88409851A859A
S11308302B853C854D855E856F857889C3010E9433
S1130840F9010FB6F894DEBF0FBECDBFA0960FB668
S1130850F894DEBF0FBECDBFDF91CF911F910F91F2
S1130860FF90EF90DF90CF90BF90AF909F908F90CC
S11308707F906F9008958F929F92AF92BF92CF9284
S1130880DF92EF92FF920F931F93CF93DF93CDB735
S1130890DEB760970FB6F894DEBF0FBECDBFEF8D05
S11308A0F8A1A9A1BAA149835A836B837C830D83E0
S11308B01E832F833887C986DA86EB86FC868D866D
S11308C09E86AF86B88ABF93AF93FF93EF938980D8
S11308D09A80AB80BC80CD80DE80EF80F88409856F
S11308E01A852B853C854D855E856F8578890E94A8
S11308F091030F900F900F900F9060960FB6F8949D
S1130900DEBF0FBECDBFDF91CF911F910F91FF903E
S1130910EF90DF90CF90BF90AF909F908F9008950D
S11309208F929F92AF92BF92CF92DF92EF92FF92FB
S11309300F931F93CF93DF93CDB7DEB7A0970FB676
S1130940F894DEBF0FBECDBFAFAD2196BFAD2197EA
S11309502296EFAD22972396FFAD239749835A83BE
S11309606B837C830D831E832F833887C986DA8645
S1130970EB86FC868D869E86AF86B88A4FA558A9DD
S113098069A97AA9498B5A8B6B8B7C8B4BA95CA97F
S11309906DA97EA94D8B5E8B6F8B788F4FA958AD57
S11309A069AD7AAD498F5A8F6B8F7C8F4BAD5CAD3F
S11309B06DAD7EAD4D8F5E8F6F8F78A3FF93EF93F8
S11309C0BF93AF932DB73EB7205131090FB6F894BA
S11309D03EBF0FBE2DBFADB7BEB7119620E1FE01DD
S11309E0719601900D922A95E1F789809A80AB80E7
S11309F0BC80CD80DE80EF80F88409851A852B8544
S1130A003C854D855E856F8578890E94F9010FB616
S1130A10F894DEBF0FBECDBFA0960FB6F894DEBF2C
S1130A200FBECDBFDF91CF911F910F91FF90EF903B
S1130A30DF90CF90BF90AF909F908F9008958F924A
S1130A409F92AF92BF92CF92DF92EF92FF920F9359
S1130A501F93CF93DF93CDB7DEB7C456D1090FB63A
S1130A60F894DEBF0FBECDBFFC0120812111DEC092
S1130A708C0105960E9477076B017C01F801818146
S1130A809281A381B481A7019601281B390B4A0BDB
S1130A905B0BCA01B9010E942D0B20E034E244E74C
S1130AA059E40E94850A4B015C0160E071E080EC2E
S1130AB090E00E94A809F8016181728180EC90E0C5
S1130AC00E94BD096AE171E080EC90E00E94A809EF
S1130AD0FF92EF92DF92CF928CE191E09F938F93FC
S1130AE09E012F5F3F4F79013F932F930E94930DF7
S1130AF0B70180EC90E00E94A809F801FD962081DE
S1130B00318142815381C501B4010E947E0C6B0185
S1130B107C012BED3FE049E450E40E947E0C0E94EE
S1130B20800A4B015C010FB6F894DEBF0FBECDBF47
S1130B3020E030E040E85FE3C701B6010E94790C91
S1130B40882394F4C501B401905820E030E040E0DB
S1130B505FE30E947E0C20E030E040E05FE30E940F
S1130B60F4096B017C0111C081E0F801808360E22B
S1130B7071E080EC90E00E94A8090F2EC12CD12CCA
S1130B80F0E8EF2EFFE3FF2EF02DF801218D328DDA
S1130B90438D548DC701B6010E947E0CF801218556
S1130BA03285438554850E94F409F80161A772A730
S1130BB083A794A7258D368D478D50A1C701B60113
S1130BC00E947E0CF80125853685478550890E9450
S1130BD0F409F80165A776A787A790AB21A132A1F4
S1130BE043A154A1C701B6010E947E0CF8012189DA
S1130BF03289438954890E94F409F80161AB72ABCC
S1130C0083AB94AB25A136A147A150A5C701B6017A
S1130C100E947E0CF801258936894789508D0E94EF
S1130C20F409F80165AB76AB87AB90AFCC59DF4FD5
S1130C300FB6F894DEBF0FBECDBFDF91CF911F91E9
S1130C400F91FF90EF90DF90CF90BF90AF909F9067
S1130C508F900895FC0161A572A583A594A50895BC
S1130C60FC0165A576A587A590A90895FC0161A955
S1130C7072A983A994A90895DC011196ED91FC91C0
S1130C801297408121E030E0C90113960C9002C014
S1130C90880F991F0A94E2F7842B80830895DC015E
S1130CA01196ED91FC911297408121E030E0B90159
S1130CB013960C9002C0660F771F0A94E2F7CB01DB
S1130CC080958423808308950F93CF93DF93EC0161
S1130CD001110DC0FB01308181E090E0022E02C0C1
S1130CE0880F991F0A94E2F7832B80830DC0FB01C0
S1130CF0308181E090E0022E02C0880F991F0A948F
S1130D00E2F78095832380835A8349832B83CE0122
S1130D100E944F061882DF91CF910F910895FC0134
S1130D20A181B2819C9121E030E0038002C0220FB6
S1130D30331F0A94E2F7892F90E080959095282339
S1130D40392381E0211101C080E00895FC017583FD
S1130D506483578346830895CF93DF93EC01CB01DB
S1130D60BA01288539854A855B850E947E0C0E94DC
S1130D70F70A7B836A8379836883DF91CF9108952F
S1130D80CF93DF93EC01CB01BA01288539854A85DD
S1130D905B850E947E0C0E94F70A79836883DF9149
S1130DA0CF910895CF93DF93EC01288139818A8113
S1130DB09B812817390744F0288139818A819B81D6
S1130DC0821793072CF147C08E819F810E943C06B5
S1130DD08AE18A95F1F700C08C819D810E943C06CE
S1130DE08FE99FE00197F1F700C000008C819D819D
S1130DF00E944F068FE99FE00197F1F700C00000C1
S1130E00288139818A819B8128173907ECF2D4CF54
S1130E108E819F810E944F069AE19A95F1F700C056
S1130E208C819D810E943C068FE99FE00197F1F738
S1130E3000C000008C819D810E944F068FE99FE0D5
S1130E400197F1F700C00000288139818A819B81D4
S1130E5082179307ECF2DF91CF910895CF92DF923E
S1130E60EF92FF92CF93DF93EC016A017B01B9010A
S1130E70330F880B990B0E942F0BA70196010E9438
S1130E807E0C20E030E040E05FE30E947E0C2BED1E
S1130E903FE049E450E40E94850A688779878A879D
S1130EA09B87DF91CF91FF90EF90DF90CF900895D3
S1130EB0FC011082118212821382E1E8F0E0808149
S1130EC082608083EFE6F0E08081816080837894A3
S1130ED00895FC0140815181628173814F5F5F4FAE
S1130EE06F4F7F4F408351836283738308952091B2
S1130EF0840030918500FC0180819181A281B381BD
S1130F00880F991FAA1FBB1F880F991FAA1FBB1FF9
S1130F10B695A7959795879536952795BC01CD01EC
S1130F20620F731F811D911D08951F920F920FB6BA
S1130F300F9211242F933F934F935F936F937F935B
S1130F408F939F93AF93BF93EF93FF938AE491E0C2
S1130F500E946907FF91EF91BF91AF919F918F918B
S1130F607F916F915F914F913F912F910F900FBEA1
S1130F700F901F9018958AE491E00E9458070895F5
S1130F80CF93DF93CDB7DEB7C05DD1090FB6F89428
S1130F90DEBF0FBECDBF00E022E04BE250E06AE2CC
S1130FA070E0CE0101960E94640623E04BE250E01B
S1130FB06AE270E0CE0105960E94640624E04BE2EA
S1130FC050E06AE270E0CE0109960E94640625E0D2
S1130FD04BE250E06AE270E0CE010D960E94640696
S1130FE026E04BE250E06AE270E0CE0141960E94B6
S1130FF0640627E04BE250E06AE270E0CE014596D9
S11310000E946406AE01435F5F4FBE016F5F7F4F76
S1131010CE0149960E94A606AE014F5E5F4FBE0107
S11310206B5F7F4FCE01C6960E94A606AE014B5E53
S11310305F4FBE01675F7F4FCE018D5A9F4F0E9465
S1131040A606CE0180599F4F0E948C00CE0188577E
S11310509F4F0E94D70128EC30E049E35EE863E645
S113106070E4CE018D5A9F4F0E942E0728EC30E089
S113107049E35EE863E670E4CE01C6960E942E075B
S113108028EC30E049E35EE863E670E4CE0149967B
S11310900E942E074BED5FE069EC7FE3CE018D5A91
S11310A09F4F0E94AC0640E050E0BA01CE01C696C4
S11310B00E94AC0640E050E0BA01CE0149960E947D
S11310C0AC061F921F921F921F921F921F921F9293
S11310D01F9292E49F9380EF8F931F921F929F938E
S11310E08F931F921F921F921F921F921F92812C07
S11310F0912C54010F2EC12CD12CF0EFEF2EF2E4E1
S1131100FF2EF02D97018601B501A401CE01885769
S11311109F4F0E94900400E028E040E052EC61E020
S113112070E080EC90E00E944E0901E025E046E288
S113113050E067E270E0CE0187539F4F0E9464063F
S1131140CE0183539F4F0E9458070FB6F894DEBF19
S11311500FBECDBFA12CB12C33243394212CCE014E
S113116088579F4F0E941F05CE0188579F4F0E94AA
S113117036066B017C01CE0188579F4F0E943006D2
S11311802B013C01CE0188579F4F0E942A06AB01D8
S1131190BC0193018201CE0180599F4F0E94BB0183
S11311A0CE0180599F4F0E948D00AB01BC01CE013E
S11311B049960E94C006CE0180599F4F0E94930019
S11311C0AB01BC01CE01C6960E94C006CE01805977
S11311D09F4F0E949900AB01BC01CE018D5A9F4FD5
S11311E00E94C006CE0149960E94D206CE01C69640
S11311F00E94D206CE018D5A9F4F0E94D206CE0184
S113120087539F4F0E948F06882309F4A8CFA11407
S1131210B10409F0A4CF6CE371E080EC90E00E948B
S1131220A809CE0188579F4F0E9436060E94F70AEC
S113123080EC90E00E94BD0967E471E080EC90E0EE
S11312400E94A80980E48F9380EC8F931F921F92D1
S1131250812C912C54010F2EC12CD12CF0EFEF2EA8
S1131260F2E4FF2EF02D9701860140E050E068E49F
S113127072E4CE0188579F4F0E943B049FEF29E6FA
S113128088E1915020408040E1F700C00000A32C89
S1131290B22C0F900F900F900F9061CF0F93CF93BC
S11312A0DF93EC01DB01CA018C529140A109B10921
S11312B0853D904CA140B10508F040C02550243034
S11312C0E8F580E2888388E18983220F2A83053444
S11312D021F48A8180628A8305C00F3419F48A81DB
S11312E080638A83DB01CA0180589B47A14EBF4FAC
S11312F0880F991FAA1FBB1F880F991FAA1FBB1F06
S1131300880F991FAA1FBB1F440F551F661F771F05
S1131310440F551F661F771F9A01AB01220F331F1D
S1131320441F551F220F331F441F551FBC01CD01FD
S11313300E94460D215031093D832C83DF91CF91CA
S11313400F910895FC01908195FFFDCF6683089568
S11313500F931F93CF93DF93EB016881662341F0D2
S11313608C012196C8010E94A20969916111FACFEA
S1131370DF91CF911F910F9108950F931F93CF93F6
S1131380DF93CDB7DEB727970FB6F894DEBF0FBE55
S1131390CDBF8C01CB014AE0BE016F5F7F4F0E943D
S11313A06E0DBE016F5F7F4FC8010E94A80927968A
S11313B00FB6F894DEBF0FBECDBFDF91CF911F9162
S11313C00F9108959F939F770E946A0B0F900020BE
S11313D042F49058A2EA2AED3FE049E450E40E9426
S11313E00B0A0C942B0C5058BB27AA270E940B0AFB
S11313F00C942B0C0E94F20B38F00E94F90B20F095
S113140039F49F3F19F426F40C94B40B0EF4E095D0
S1131410E7FB0C94AE0BE92F0E94500C58F3BA175B
S1131420620773078407950720F079F4A6F50C94F6
S1131430720C0EF4E0950B2EBA2FA02D0B01B901FE
S113144090010C01CA01A0011124FF27591B99F036
S1131450593F50F4503E68F11A16F040A22F232F42
S1131460342F4427585FF3CF469537952795A79592
S1131470F0405395C9F77EF41F16BA0B620B730B39
S1131480840BBAF09150A1F0FF0FBB1F661F771FAA
S1131490881FC2F70EC0BA0F621F731F841F48F45F
S11314A0879577956795B795F7959E3F08F0B0CFE8
S11314B09395880F08F09927EE0F979587950895CF
S11314C09F939F77EEE389379E0728F4E8E6F0E0E0
S11314D00E94DE0B0CC00E946A0B9058A2EA2AED0F
S11314E03FE049EC5FE30E940B0A0E942B0C0F9033
S11314F007FC905808950E948A0B08F481E008952F
S11315000E94020CE3950C943C0C0E94990A0C94E2
S11315102B0C0E94F90B58F00E94F20B40F029F4B6
S11315205F3F29F00C94AE0B51110C94730C0C9486
S1131530B40B0E94500C68F39923B1F3552391F333
S1131540951B550BBB27AA2762177307840738F02E
S11315509F5F5F4F220F331F441FAA1FA9F335D08B
S11315600E2E3AF0E0E832D091505040E695001C3F
S1131570CAF72BD0FE2F29D0660F771F881FBB1FF9
S1131580261737074807AB07B0E809F0BB0B802DD7
S1131590BF01FF2793585F4F3AF09E3F510578F003
S11315A00C94AE0B0C94730C5F3FE4F3983ED4F3AD
S11315B0869577956795B795F7959F5FC9F7880FD7
S11315C0911D9695879597F90895E1E0660F771F29
S11315D0881FBB1F621773078407BA0720F0621BBA
S11315E0730B840BBA0BEE1F88F7E09508950E94E5
S11315F0FE0A6894B1110C94730C08950E94580C5F
S113160088F09F5798F0B92F9927B751B0F0E1F0BF
S1131610660F771F881F991F1AF0BA95C9F714C06F
S1131620B13091F00E94720CB1E008950C94720CE8
S1131630672F782F8827B85F39F0B93FCCF38695A8
S113164077956795B395D9F73EF490958095709505
S113165061957F4F8F4F9F4F0895E89409C097FB82
S11316603EF490958095709561957F4F8F4F9F4F75
S11316709923A9F0F92F96E9BB279395F6958795B9
S113168077956795B795F111F8CFFAF4BB0F11F47C
S113169060FF1BC06F5F7F4F8F4F9F4F16C0882323
S11316A011F096E911C0772321F09EE8872F762F59
S11316B005C0662371F096E8862F70E060E02AF09A
S11316C09A95660F771F881FDAF7880F9695879586
S11316D097F90895DF93CF931F930F938B01EC0138
S11316E0ECE7F0E00E94B70B0E942B0C9801AE01CE
S11316F08B01EC0160E070E080E89FE30E94F30955
S11317000E94F10C9801AE010F911F91CF91DF91CE
S11317100C94910C990F0008550FAA0BE0E8FEEF0A
S113172016161706E807F907C0F012161306E407A1
S1131730F50798F0621B730B840B950B39F40A269A
S113174061F0232B242B252B21F408950A2609F478
S1131750A140A6958FEF811D811D089597F99F677C
S113176080E870E060E008959FEF80EC0895DF93D7
S1131770CF931F930F93FF92EF92DF927B018C0123
S1131780689406C0DA2EEF010E94910CFE01E894E1
S1131790A5912591359145915591A6F3EF010E94AC
S11317A00B0AFE019701A801DA9469F7DF90EF9024
S11317B0FF900F911F91CF91DF9108959F938F9385
S11317C07F936F93FF93EF939B01AC010E947E0C78
S11317D0EF91FF910E94B70B2F913F914F915F9131
S11317E00C947E0C00240A94161617061806090693
S11317F0089500240A941216130614060506089583
S11318000C94B40B0E94580CD8F3E894E0E0BB2786
S11318109F57F0F02AED3FE049EC06C0EE0FBB0FF6
S1131820661F771F881F28F0B23A62077307840780
S113183028F0B25A620B730B840BE3959A9572F7F6
S1131840803830F49A95BB0F661F771F881FD2F734
S113185090480C94330D092E0394000C11F4882342
S113186052F0BB0F40F4BF2B11F460FF04C06F5F54
S11318707F4F8F4F9F4F0895EF93E0FF07C0A2EA79
S11318802AED3FE049EC5FEB0E940B0A0E942B0C0F
S11318900F90039401FC9058E4EAF0E00C94DE0B02
S11318A057FD9058440F551F59F05F3F71F047950D
S11318B0880F97FB991F61F09F3F79F087950895F2
S11318C0121613061406551FF2CF4695F1DF08C011
S11318D0161617061806991FF1CF8695710561052E
S11318E008940895E894BB2766277727CB0197F9D6
S11318F008950E948A0B08F48FEF08950E94910CBA
S11319000C942B0C0E94F20B38F00E94F90B20F07F
S1131910952311F00C94AE0B0C94B40B11240C947D
S1131920730C0E94500C70F3959FC1F3950F50E017
S1131930551F629FF001729FBB27F00DB11D639F7D
S1131940AA27F00DB11DAA1F649F6627B00DA11D23
S1131950661F829F2227B00DA11D621F739FB00DC9
S1131960A11D621F839FA00D611D221F749F332739
S1131970A00D611D231F849F600D211D822F762FD2
S11319806A2F11249F5750409AF0F1F088234AF0AF
S1131990EE0FFF1FBB1F661F771F881F915050401B
S11319A0A9F79E3F510580F00C94AE0B0C94730C78
S11319B05F3FE4F3983ED4F3869577956795B795A2
S11319C0F795E7959F5FC1F7FE2B880F911D9695BC
S11319D0879597F9089519F416F40C94B40B0C94A4
S11319E0310D0E94580CB8F39923C9F3B6F39F57ED
S11319F0550B87FF0E943F0D0024A0E640EA9001AA
S1131A0080585695979528F4805C660F771F881F39
S1131A1020F026173707480730F4621B730B840B3A
S1131A20202931294A2BA69517940794202531257E
S1131A304A2758F7660F771F881F20F026173707A5
S1131A40480730F4620B730B840B200D311D411DCC
S1131A50A09581F7B901842F9158880F96958795A1
S1131A6008959F3F31F0915020F4879577956795BD
S1131A70B795880F911D9695879597F9089591507C
S1131A805040660F771F881FD2F70895A1E21A2EDF
S1131A90AA1BBB1BFD010DC0AA1FBB1FEE1FFF1F0E
S1131AA0A217B307E407F50720F0A21BB30BE40B5E
S1131AB0F50B661F771F881F991F1A9469F76095A5
S1131AC07095809590959B01AC01BD01CF0108955F
S1131AD0EE0FFF1F0590F491E02D0994BB274A30C7
S1131AE031F4992322F4BDE2909581959F4F0C9493
S1131AF07A0DBB27FB015527AA27880F991FAA1F18
S1131B00A41710F0A41B83955051B9F7A05DAA3314
S1131B1008F0A95DA193009779F7B111B1931192DF
S1131B20CB010C94AC0FAEE0B0E0E9E9FDE00C941D
S1131B3064100D891E8986E08C831A8309838FEFD4
S1131B409FE79E838D83AE01475E5F4F6F89788DDB
S1131B50CE0101960E94B50DEF81F885E00FF11FCB
S1131B6010822E96E4E00C948010ABE0B0E0EBEB36
S1131B70FDE00C9456106C017B018A01FC01178274
S1131B801682838181FFCCC1CE0101963C01F6010E
S1131B909381F70193FD859193FF81917F018823C0
S1131BA009F4BAC1853239F493FD859193FF81918B
S1131BB07F01853229F4B60190E00E94BC0FE7CF83
S1131BC0912C212C312CFFE1F315D8F08B3279F0D4
S1131BD038F4803279F08332A1F4232D20611DC0C2
S1131BE08D3261F0803369F4232D216016C0832D7A
S1131BF08260382EE32DE4603E2E2AC0F32DF86077
S1131C001DC037FC2DC020ED280F2A3040F08E3245
S1131C10B9F436FC81C1232D2064322E19C036FE5E
S1131C2006C08AE0989E200D1124922E11C0EAE08D
S1131C302E9E200D1124222EF32DF0623F2E08C07B
S1131C408C3621F4832D8068382E02C0883641F406
S1131C50F70193FD859193FF81917F018111B3CFAA
S1131C60982F9F7D9554933028F40C5F1F4F9FE36A
S1131C7099830DC0833631F0833771F0833509F0D1
S1131C8059C021C0F801808189830E5F1F4F8824C9
S1131C908394912C530113C02801F2E04F0E511C80
S1131CA0F801A080B18036FE03C0692D70E002C047
S1131CB06FEF7FEFC5010E94A10F4C018201F32D4C
S1131CC0FF773F2E16C0280122E0420E511CF80176
S1131CD0A080B18036FE03C0692D70E002C06FEFB2
S1131CE07FEFC5010E94960F4C01F32DF0683F2E43
S1131CF0820133FC1BC0822D90E088169906B0F453
S1131D00B60180E290E00E94BC0F2A94F4CFF50162
S1131D1037FC859137FE81915F01B60190E00E9406
S1131D20BC0F21102A9421E0821A91088114910495
S1131D3071F7E8C0843611F0893641F5F80137FEB1
S1131D4007C060817181828193810C5F1F4F08C03D
S1131D5060817181072E000C880B990B0E5F1F4F59
S1131D60F32DFF763F2E97FF09C0909580957095CF
S1131D7061957F4F8F4F9F4FF0683F2E2AE030E0F0
S1131D80A3010E94F80F882E861845C0853731F4C8
S1131D90232D2F7EB22E2AE030E025C0932D997F8B
S1131DA0B92E8F36C1F018F4883579F0B5C0803774
S1131DB019F0883721F0B0C0E92FE061BE2EB4FEDF
S1131DC00DC0FB2DF460BF2E09C034FE0AC0292FBC
S1131DD02660B22E06C028E030E005C020E130E0E5
S1131DE002C020E132E0F801B7FE07C060817181D2
S1131DF0828193810C5F1F4F06C06081718180E0F6
S1131E0090E00E5F1F4FA3010E94F80F882E8618E2
S1131E10FB2DFF773F2E36FE0DC0232D2E7FA22EE5
S1131E20891458F434FE0BC032FC09C0832D8E7E15
S1131E30A82E05C0B82CA32C03C0B82C01C0B92C03
S1131E40A4FE0FC0FE01E80DF11D8081803321F452
S1131E509A2D997EA92E09C0A2FE06C0B394B3940C
S1131E6004C08A2D867809F0B394A3FC11C0A0FEA7
S1131E7006C0B21488F4280C922C9B180EC0B2141D
S1131E8060F4B60180E290E00E94BC0FB394F7CFF7
S1131E90B21418F42B1802C0982C212CA4FE10C0E4
S1131EA0B60180E390E00E94BC0FA2FE17C0A1FC23
S1131EB003C088E790E002C088E590E0B6010CC05A
S1131EC08A2D867859F0A1FE02C08BE201C080E21F
S1131ED0A7FC8DE2B60190E00E94BC0F891438F48F
S1131EE0B60180E390E00E94BC0F9A94F7CF8A94E5
S1131EF0F301E80DF11D8081B60190E00E94BC0F52
S1131F008110F5CF222009F442CEB60180E290E0A0
S1131F100E94BC0F2A94F6CFF6018681978102C0F5
S1131F208FEF9FEF2B96E2E10C947210FC01059069
S1131F30615070400110D8F7809590958E0F9F1FC7
S1131F400895FC016150704001900110D8F780950C
S1131F5090958E0F9F1F0895DC01FC01672F7191EE
S1131F607723E1F7329704C07C916D93708362917B
S1131F70AE17BF07C8F308950F931F93CF93DF9352
S1131F80FB01238121FD03C08FEF9FEF2CC022FFB3
S1131F9016C046815781248135814217530744F482
S1131FA0A081B1819D012F5F3F4F318320838C93AA
S1131FB0268137812F5F3F4F3783268314C08B01DF
S1131FC0EC01FB010084F185E02D0995892BE1F6F4
S1131FD0D80116968D919C911797019617969C930C
S1131FE08E931697CE01DF91CF911F910F91089593
S1131FF0FA01AA27283051F1203181F1E8946F9336
S11320006E7F6E5F7F4F8F4F9F4FAF4FB1E03ED0DB
S1132010B4E03CD0670F781F891F9A1FA11D680F79
S1132020791F8A1F911DA11D6A0F711D811D911DAC
S1132030A11D20D009F468943F912AE0269F112421
S11320403019305D3193DEF6CF010895462F477085
S1132050405D4193B3E00FD0C9F7F6CF462F4F70E0
S1132060405D4A3318F0495D31FD4052419302D03E
S1132070A9F7EACFB4E0A6959795879577956795E4
S1132080BA95C9F700976105710508959B01AC01E4
S11320900A2E06945795479537952795BA95C9F70B
S11320A0620F731F841F951FA01D08952F923F92E6
S11320B04F925F926F927F928F929F92AF92BF9254
S11320C0CF92DF92EF92FF920F931F93CF93DF9300
S11320D0CDB7DEB7CA1BDB0B0FB6F894DEBF0FBE5D
S11320E0CDBF09942A88398848885F846E847D84AA
S11320F08C849B84AA84B984C884DF80EE80FD80AC
S11321000C811B81AA81B981CE0FD11D0FB6F89421
S1112110DEBF0FBECDBFED010895F894FFCFE2
S113211E0A0D20737461727454696D655F2C206DA1
S113212E6963726F73656B3A20002C00256C750021
S113213E73746174655F203D20312C20616C74735F
S113214E6161206661657264696721005472796BFE
S10D215E6B6574206E65640A0D00C1
S9030000FC
